{
  "_format": "hh-sol-artifact-1",
  "contractName": "PhisherRegistry",
  "sourceName": "contracts/PhisherRegistry.sol",
  "abi": [
    {
      "inputs": [
        {
          "internalType": "string",
          "name": "name",
          "type": "string"
        }
      ],
      "stateMutability": "nonpayable",
      "type": "constructor"
    },
    {
      "anonymous": false,
      "inputs": [
        {
          "indexed": false,
          "internalType": "address",
          "name": "principal",
          "type": "address"
        },
        {
          "indexed": true,
          "internalType": "address",
          "name": "agent",
          "type": "address"
        }
      ],
      "name": "DelegationTriggered",
      "type": "event"
    },
    {
      "anonymous": false,
      "inputs": [
        {
          "indexed": true,
          "internalType": "string",
          "name": "entity",
          "type": "string"
        },
        {
          "indexed": false,
          "internalType": "bool",
          "name": "isMember",
          "type": "bool"
        }
      ],
      "name": "MemberStatusUpdated",
      "type": "event"
    },
    {
      "anonymous": false,
      "inputs": [
        {
          "indexed": true,
          "internalType": "address",
          "name": "previousOwner",
          "type": "address"
        },
        {
          "indexed": true,
          "internalType": "address",
          "name": "newOwner",
          "type": "address"
        }
      ],
      "name": "OwnershipTransferred",
      "type": "event"
    },
    {
      "anonymous": false,
      "inputs": [
        {
          "indexed": true,
          "internalType": "string",
          "name": "entity",
          "type": "string"
        },
        {
          "indexed": false,
          "internalType": "bool",
          "name": "isPhisher",
          "type": "bool"
        }
      ],
      "name": "PhisherStatusUpdated",
      "type": "event"
    },
    {
      "inputs": [
        {
          "components": [
            {
              "internalType": "address",
              "name": "enforcer",
              "type": "address"
            },
            {
              "internalType": "bytes",
              "name": "terms",
              "type": "bytes"
            }
          ],
          "internalType": "struct Caveat[]",
          "name": "_input",
          "type": "tuple[]"
        }
      ],
      "name": "GET_CAVEAT_ARRAY_PACKETHASH",
      "outputs": [
        {
          "internalType": "bytes32",
          "name": "",
          "type": "bytes32"
        }
      ],
      "stateMutability": "pure",
      "type": "function"
    },
    {
      "inputs": [
        {
          "components": [
            {
              "internalType": "address",
              "name": "enforcer",
              "type": "address"
            },
            {
              "internalType": "bytes",
              "name": "terms",
              "type": "bytes"
            }
          ],
          "internalType": "struct Caveat",
          "name": "_input",
          "type": "tuple"
        }
      ],
      "name": "GET_CAVEAT_PACKETHASH",
      "outputs": [
        {
          "internalType": "bytes32",
          "name": "",
          "type": "bytes32"
        }
      ],
      "stateMutability": "pure",
      "type": "function"
    },
    {
      "inputs": [
        {
          "components": [
            {
              "internalType": "address",
              "name": "delegate",
              "type": "address"
            },
            {
              "internalType": "bytes32",
              "name": "authority",
              "type": "bytes32"
            },
            {
              "components": [
                {
                  "internalType": "address",
                  "name": "enforcer",
                  "type": "address"
                },
                {
                  "internalType": "bytes",
                  "name": "terms",
                  "type": "bytes"
                }
              ],
              "internalType": "struct Caveat[]",
              "name": "caveats",
              "type": "tuple[]"
            }
          ],
          "internalType": "struct Delegation",
          "name": "_input",
          "type": "tuple"
        }
      ],
      "name": "GET_DELEGATION_PACKETHASH",
      "outputs": [
        {
          "internalType": "bytes32",
          "name": "",
          "type": "bytes32"
        }
      ],
      "stateMutability": "pure",
      "type": "function"
    },
    {
      "inputs": [
        {
          "components": [
            {
              "internalType": "string",
              "name": "name",
              "type": "string"
            },
            {
              "internalType": "string",
              "name": "version",
              "type": "string"
            },
            {
              "internalType": "uint256",
              "name": "chainId",
              "type": "uint256"
            },
            {
              "internalType": "address",
              "name": "verifyingContract",
              "type": "address"
            }
          ],
          "internalType": "struct EIP712Domain",
          "name": "_input",
          "type": "tuple"
        }
      ],
      "name": "GET_EIP712DOMAIN_PACKETHASH",
      "outputs": [
        {
          "internalType": "bytes32",
          "name": "",
          "type": "bytes32"
        }
      ],
      "stateMutability": "pure",
      "type": "function"
    },
    {
      "inputs": [
        {
          "components": [
            {
              "internalType": "bytes32",
              "name": "delegationHash",
              "type": "bytes32"
            }
          ],
          "internalType": "struct IntentionToRevoke",
          "name": "_input",
          "type": "tuple"
        }
      ],
      "name": "GET_INTENTIONTOREVOKE_PACKETHASH",
      "outputs": [
        {
          "internalType": "bytes32",
          "name": "",
          "type": "bytes32"
        }
      ],
      "stateMutability": "pure",
      "type": "function"
    },
    {
      "inputs": [
        {
          "components": [
            {
              "components": [
                {
                  "components": [
                    {
                      "internalType": "address",
                      "name": "to",
                      "type": "address"
                    },
                    {
                      "internalType": "uint256",
                      "name": "gasLimit",
                      "type": "uint256"
                    },
                    {
                      "internalType": "bytes",
                      "name": "data",
                      "type": "bytes"
                    }
                  ],
                  "internalType": "struct Transaction",
                  "name": "transaction",
                  "type": "tuple"
                },
                {
                  "components": [
                    {
                      "components": [
                        {
                          "internalType": "address",
                          "name": "delegate",
                          "type": "address"
                        },
                        {
                          "internalType": "bytes32",
                          "name": "authority",
                          "type": "bytes32"
                        },
                        {
                          "components": [
                            {
                              "internalType": "address",
                              "name": "enforcer",
                              "type": "address"
                            },
                            {
                              "internalType": "bytes",
                              "name": "terms",
                              "type": "bytes"
                            }
                          ],
                          "internalType": "struct Caveat[]",
                          "name": "caveats",
                          "type": "tuple[]"
                        }
                      ],
                      "internalType": "struct Delegation",
                      "name": "delegation",
                      "type": "tuple"
                    },
                    {
                      "internalType": "bytes",
                      "name": "signature",
                      "type": "bytes"
                    }
                  ],
                  "internalType": "struct SignedDelegation[]",
                  "name": "authority",
                  "type": "tuple[]"
                }
              ],
              "internalType": "struct Invocation[]",
              "name": "batch",
              "type": "tuple[]"
            },
            {
              "components": [
                {
                  "internalType": "uint256",
                  "name": "nonce",
                  "type": "uint256"
                },
                {
                  "internalType": "uint256",
                  "name": "queue",
                  "type": "uint256"
                }
              ],
              "internalType": "struct ReplayProtection",
              "name": "replayProtection",
              "type": "tuple"
            }
          ],
          "internalType": "struct Invocations",
          "name": "_input",
          "type": "tuple"
        }
      ],
      "name": "GET_INVOCATIONS_PACKETHASH",
      "outputs": [
        {
          "internalType": "bytes32",
          "name": "",
          "type": "bytes32"
        }
      ],
      "stateMutability": "pure",
      "type": "function"
    },
    {
      "inputs": [
        {
          "components": [
            {
              "components": [
                {
                  "internalType": "address",
                  "name": "to",
                  "type": "address"
                },
                {
                  "internalType": "uint256",
                  "name": "gasLimit",
                  "type": "uint256"
                },
                {
                  "internalType": "bytes",
                  "name": "data",
                  "type": "bytes"
                }
              ],
              "internalType": "struct Transaction",
              "name": "transaction",
              "type": "tuple"
            },
            {
              "components": [
                {
                  "components": [
                    {
                      "internalType": "address",
                      "name": "delegate",
                      "type": "address"
                    },
                    {
                      "internalType": "bytes32",
                      "name": "authority",
                      "type": "bytes32"
                    },
                    {
                      "components": [
                        {
                          "internalType": "address",
                          "name": "enforcer",
                          "type": "address"
                        },
                        {
                          "internalType": "bytes",
                          "name": "terms",
                          "type": "bytes"
                        }
                      ],
                      "internalType": "struct Caveat[]",
                      "name": "caveats",
                      "type": "tuple[]"
                    }
                  ],
                  "internalType": "struct Delegation",
                  "name": "delegation",
                  "type": "tuple"
                },
                {
                  "internalType": "bytes",
                  "name": "signature",
                  "type": "bytes"
                }
              ],
              "internalType": "struct SignedDelegation[]",
              "name": "authority",
              "type": "tuple[]"
            }
          ],
          "internalType": "struct Invocation[]",
          "name": "_input",
          "type": "tuple[]"
        }
      ],
      "name": "GET_INVOCATION_ARRAY_PACKETHASH",
      "outputs": [
        {
          "internalType": "bytes32",
          "name": "",
          "type": "bytes32"
        }
      ],
      "stateMutability": "pure",
      "type": "function"
    },
    {
      "inputs": [
        {
          "components": [
            {
              "components": [
                {
                  "internalType": "address",
                  "name": "to",
                  "type": "address"
                },
                {
                  "internalType": "uint256",
                  "name": "gasLimit",
                  "type": "uint256"
                },
                {
                  "internalType": "bytes",
                  "name": "data",
                  "type": "bytes"
                }
              ],
              "internalType": "struct Transaction",
              "name": "transaction",
              "type": "tuple"
            },
            {
              "components": [
                {
                  "components": [
                    {
                      "internalType": "address",
                      "name": "delegate",
                      "type": "address"
                    },
                    {
                      "internalType": "bytes32",
                      "name": "authority",
                      "type": "bytes32"
                    },
                    {
                      "components": [
                        {
                          "internalType": "address",
                          "name": "enforcer",
                          "type": "address"
                        },
                        {
                          "internalType": "bytes",
                          "name": "terms",
                          "type": "bytes"
                        }
                      ],
                      "internalType": "struct Caveat[]",
                      "name": "caveats",
                      "type": "tuple[]"
                    }
                  ],
                  "internalType": "struct Delegation",
                  "name": "delegation",
                  "type": "tuple"
                },
                {
                  "internalType": "bytes",
                  "name": "signature",
                  "type": "bytes"
                }
              ],
              "internalType": "struct SignedDelegation[]",
              "name": "authority",
              "type": "tuple[]"
            }
          ],
          "internalType": "struct Invocation",
          "name": "_input",
          "type": "tuple"
        }
      ],
      "name": "GET_INVOCATION_PACKETHASH",
      "outputs": [
        {
          "internalType": "bytes32",
          "name": "",
          "type": "bytes32"
        }
      ],
      "stateMutability": "pure",
      "type": "function"
    },
    {
      "inputs": [
        {
          "components": [
            {
              "internalType": "uint256",
              "name": "nonce",
              "type": "uint256"
            },
            {
              "internalType": "uint256",
              "name": "queue",
              "type": "uint256"
            }
          ],
          "internalType": "struct ReplayProtection",
          "name": "_input",
          "type": "tuple"
        }
      ],
      "name": "GET_REPLAYPROTECTION_PACKETHASH",
      "outputs": [
        {
          "internalType": "bytes32",
          "name": "",
          "type": "bytes32"
        }
      ],
      "stateMutability": "pure",
      "type": "function"
    },
    {
      "inputs": [
        {
          "components": [
            {
              "components": [
                {
                  "internalType": "address",
                  "name": "delegate",
                  "type": "address"
                },
                {
                  "internalType": "bytes32",
                  "name": "authority",
                  "type": "bytes32"
                },
                {
                  "components": [
                    {
                      "internalType": "address",
                      "name": "enforcer",
                      "type": "address"
                    },
                    {
                      "internalType": "bytes",
                      "name": "terms",
                      "type": "bytes"
                    }
                  ],
                  "internalType": "struct Caveat[]",
                  "name": "caveats",
                  "type": "tuple[]"
                }
              ],
              "internalType": "struct Delegation",
              "name": "delegation",
              "type": "tuple"
            },
            {
              "internalType": "bytes",
              "name": "signature",
              "type": "bytes"
            }
          ],
          "internalType": "struct SignedDelegation[]",
          "name": "_input",
          "type": "tuple[]"
        }
      ],
      "name": "GET_SIGNEDDELEGATION_ARRAY_PACKETHASH",
      "outputs": [
        {
          "internalType": "bytes32",
          "name": "",
          "type": "bytes32"
        }
      ],
      "stateMutability": "pure",
      "type": "function"
    },
    {
      "inputs": [
        {
          "components": [
            {
              "components": [
                {
                  "internalType": "address",
                  "name": "delegate",
                  "type": "address"
                },
                {
                  "internalType": "bytes32",
                  "name": "authority",
                  "type": "bytes32"
                },
                {
                  "components": [
                    {
                      "internalType": "address",
                      "name": "enforcer",
                      "type": "address"
                    },
                    {
                      "internalType": "bytes",
                      "name": "terms",
                      "type": "bytes"
                    }
                  ],
                  "internalType": "struct Caveat[]",
                  "name": "caveats",
                  "type": "tuple[]"
                }
              ],
              "internalType": "struct Delegation",
              "name": "delegation",
              "type": "tuple"
            },
            {
              "internalType": "bytes",
              "name": "signature",
              "type": "bytes"
            }
          ],
          "internalType": "struct SignedDelegation",
          "name": "_input",
          "type": "tuple"
        }
      ],
      "name": "GET_SIGNEDDELEGATION_PACKETHASH",
      "outputs": [
        {
          "internalType": "bytes32",
          "name": "",
          "type": "bytes32"
        }
      ],
      "stateMutability": "pure",
      "type": "function"
    },
    {
      "inputs": [
        {
          "components": [
            {
              "internalType": "bytes",
              "name": "signature",
              "type": "bytes"
            },
            {
              "components": [
                {
                  "internalType": "bytes32",
                  "name": "delegationHash",
                  "type": "bytes32"
                }
              ],
              "internalType": "struct IntentionToRevoke",
              "name": "intentionToRevoke",
              "type": "tuple"
            }
          ],
          "internalType": "struct SignedIntentionToRevoke",
          "name": "_input",
          "type": "tuple"
        }
      ],
      "name": "GET_SIGNEDINTENTIONTOREVOKE_PACKETHASH",
      "outputs": [
        {
          "internalType": "bytes32",
          "name": "",
          "type": "bytes32"
        }
      ],
      "stateMutability": "pure",
      "type": "function"
    },
    {
      "inputs": [
        {
          "components": [
            {
              "components": [
                {
                  "components": [
                    {
                      "components": [
                        {
                          "internalType": "address",
                          "name": "to",
                          "type": "address"
                        },
                        {
                          "internalType": "uint256",
                          "name": "gasLimit",
                          "type": "uint256"
                        },
                        {
                          "internalType": "bytes",
                          "name": "data",
                          "type": "bytes"
                        }
                      ],
                      "internalType": "struct Transaction",
                      "name": "transaction",
                      "type": "tuple"
                    },
                    {
                      "components": [
                        {
                          "components": [
                            {
                              "internalType": "address",
                              "name": "delegate",
                              "type": "address"
                            },
                            {
                              "internalType": "bytes32",
                              "name": "authority",
                              "type": "bytes32"
                            },
                            {
                              "components": [
                                {
                                  "internalType": "address",
                                  "name": "enforcer",
                                  "type": "address"
                                },
                                {
                                  "internalType": "bytes",
                                  "name": "terms",
                                  "type": "bytes"
                                }
                              ],
                              "internalType": "struct Caveat[]",
                              "name": "caveats",
                              "type": "tuple[]"
                            }
                          ],
                          "internalType": "struct Delegation",
                          "name": "delegation",
                          "type": "tuple"
                        },
                        {
                          "internalType": "bytes",
                          "name": "signature",
                          "type": "bytes"
                        }
                      ],
                      "internalType": "struct SignedDelegation[]",
                      "name": "authority",
                      "type": "tuple[]"
                    }
                  ],
                  "internalType": "struct Invocation[]",
                  "name": "batch",
                  "type": "tuple[]"
                },
                {
                  "components": [
                    {
                      "internalType": "uint256",
                      "name": "nonce",
                      "type": "uint256"
                    },
                    {
                      "internalType": "uint256",
                      "name": "queue",
                      "type": "uint256"
                    }
                  ],
                  "internalType": "struct ReplayProtection",
                  "name": "replayProtection",
                  "type": "tuple"
                }
              ],
              "internalType": "struct Invocations",
              "name": "invocations",
              "type": "tuple"
            },
            {
              "internalType": "bytes",
              "name": "signature",
              "type": "bytes"
            }
          ],
          "internalType": "struct SignedInvocation",
          "name": "_input",
          "type": "tuple"
        }
      ],
      "name": "GET_SIGNEDINVOCATION_PACKETHASH",
      "outputs": [
        {
          "internalType": "bytes32",
          "name": "",
          "type": "bytes32"
        }
      ],
      "stateMutability": "pure",
      "type": "function"
    },
    {
      "inputs": [
        {
          "components": [
            {
              "internalType": "address",
              "name": "to",
              "type": "address"
            },
            {
              "internalType": "uint256",
              "name": "gasLimit",
              "type": "uint256"
            },
            {
              "internalType": "bytes",
              "name": "data",
              "type": "bytes"
            }
          ],
          "internalType": "struct Transaction",
          "name": "_input",
          "type": "tuple"
        }
      ],
      "name": "GET_TRANSACTION_PACKETHASH",
      "outputs": [
        {
          "internalType": "bytes32",
          "name": "",
          "type": "bytes32"
        }
      ],
      "stateMutability": "pure",
      "type": "function"
    },
    {
      "inputs": [
        {
          "internalType": "string",
          "name": "identifier",
          "type": "string"
        },
        {
          "internalType": "bool",
          "name": "isNominated",
          "type": "bool"
        }
      ],
      "name": "claimIfMember",
      "outputs": [],
      "stateMutability": "nonpayable",
      "type": "function"
    },
    {
      "inputs": [
        {
          "internalType": "string",
          "name": "identifier",
          "type": "string"
        },
        {
          "internalType": "bool",
          "name": "isAccused",
          "type": "bool"
        }
      ],
      "name": "claimIfPhisher",
      "outputs": [],
      "stateMutability": "nonpayable",
      "type": "function"
    },
    {
      "inputs": [
        {
          "components": [
            {
              "components": [
                {
                  "internalType": "address",
                  "name": "to",
                  "type": "address"
                },
                {
                  "internalType": "uint256",
                  "name": "gasLimit",
                  "type": "uint256"
                },
                {
                  "internalType": "bytes",
                  "name": "data",
                  "type": "bytes"
                }
              ],
              "internalType": "struct Transaction",
              "name": "transaction",
              "type": "tuple"
            },
            {
              "components": [
                {
                  "components": [
                    {
                      "internalType": "address",
                      "name": "delegate",
                      "type": "address"
                    },
                    {
                      "internalType": "bytes32",
                      "name": "authority",
                      "type": "bytes32"
                    },
                    {
                      "components": [
                        {
                          "internalType": "address",
                          "name": "enforcer",
                          "type": "address"
                        },
                        {
                          "internalType": "bytes",
                          "name": "terms",
                          "type": "bytes"
                        }
                      ],
                      "internalType": "struct Caveat[]",
                      "name": "caveats",
                      "type": "tuple[]"
                    }
                  ],
                  "internalType": "struct Delegation",
                  "name": "delegation",
                  "type": "tuple"
                },
                {
                  "internalType": "bytes",
                  "name": "signature",
                  "type": "bytes"
                }
              ],
              "internalType": "struct SignedDelegation[]",
              "name": "authority",
              "type": "tuple[]"
            }
          ],
          "internalType": "struct Invocation[]",
          "name": "batch",
          "type": "tuple[]"
        }
      ],
      "name": "contractInvoke",
      "outputs": [
        {
          "internalType": "bool",
          "name": "",
          "type": "bool"
        }
      ],
      "stateMutability": "nonpayable",
      "type": "function"
    },
    {
      "inputs": [],
      "name": "domainHash",
      "outputs": [
        {
          "internalType": "bytes32",
          "name": "",
          "type": "bytes32"
        }
      ],
      "stateMutability": "view",
      "type": "function"
    },
    {
      "inputs": [
        {
          "internalType": "bytes",
          "name": "terms",
          "type": "bytes"
        },
        {
          "components": [
            {
              "internalType": "address",
              "name": "to",
              "type": "address"
            },
            {
              "internalType": "uint256",
              "name": "gasLimit",
              "type": "uint256"
            },
            {
              "internalType": "bytes",
              "name": "data",
              "type": "bytes"
            }
          ],
          "internalType": "struct Transaction",
          "name": "transaction",
          "type": "tuple"
        },
        {
          "internalType": "bytes32",
          "name": "delegationHash",
          "type": "bytes32"
        }
      ],
      "name": "enforceCaveat",
      "outputs": [
        {
          "internalType": "bool",
          "name": "",
          "type": "bool"
        }
      ],
      "stateMutability": "view",
      "type": "function"
    },
    {
      "inputs": [
        {
          "components": [
            {
              "internalType": "address",
              "name": "delegate",
              "type": "address"
            },
            {
              "internalType": "bytes32",
              "name": "authority",
              "type": "bytes32"
            },
            {
              "components": [
                {
                  "internalType": "address",
                  "name": "enforcer",
                  "type": "address"
                },
                {
                  "internalType": "bytes",
                  "name": "terms",
                  "type": "bytes"
                }
              ],
              "internalType": "struct Caveat[]",
              "name": "caveats",
              "type": "tuple[]"
            }
          ],
          "internalType": "struct Delegation",
          "name": "delegation",
          "type": "tuple"
        }
      ],
      "name": "getDelegationTypedDataHash",
      "outputs": [
        {
          "internalType": "bytes32",
          "name": "",
          "type": "bytes32"
        }
      ],
      "stateMutability": "view",
      "type": "function"
    },
    {
      "inputs": [
        {
          "internalType": "string",
          "name": "contractName",
          "type": "string"
        },
        {
          "internalType": "string",
          "name": "version",
          "type": "string"
        },
        {
          "internalType": "uint256",
          "name": "chainId",
          "type": "uint256"
        },
        {
          "internalType": "address",
          "name": "verifyingContract",
          "type": "address"
        }
      ],
      "name": "getEIP712DomainHash",
      "outputs": [
        {
          "internalType": "bytes32",
          "name": "",
          "type": "bytes32"
        }
      ],
      "stateMutability": "pure",
      "type": "function"
    },
    {
      "inputs": [
        {
          "components": [
            {
              "internalType": "bytes32",
              "name": "delegationHash",
              "type": "bytes32"
            }
          ],
          "internalType": "struct IntentionToRevoke",
          "name": "intentionToRevoke",
          "type": "tuple"
        }
      ],
      "name": "getIntentionToRevokeTypedDataHash",
      "outputs": [
        {
          "internalType": "bytes32",
          "name": "",
          "type": "bytes32"
        }
      ],
      "stateMutability": "view",
      "type": "function"
    },
    {
      "inputs": [
        {
          "components": [
            {
              "components": [
                {
                  "components": [
                    {
                      "internalType": "address",
                      "name": "to",
                      "type": "address"
                    },
                    {
                      "internalType": "uint256",
                      "name": "gasLimit",
                      "type": "uint256"
                    },
                    {
                      "internalType": "bytes",
                      "name": "data",
                      "type": "bytes"
                    }
                  ],
                  "internalType": "struct Transaction",
                  "name": "transaction",
                  "type": "tuple"
                },
                {
                  "components": [
                    {
                      "components": [
                        {
                          "internalType": "address",
                          "name": "delegate",
                          "type": "address"
                        },
                        {
                          "internalType": "bytes32",
                          "name": "authority",
                          "type": "bytes32"
                        },
                        {
                          "components": [
                            {
                              "internalType": "address",
                              "name": "enforcer",
                              "type": "address"
                            },
                            {
                              "internalType": "bytes",
                              "name": "terms",
                              "type": "bytes"
                            }
                          ],
                          "internalType": "struct Caveat[]",
                          "name": "caveats",
                          "type": "tuple[]"
                        }
                      ],
                      "internalType": "struct Delegation",
                      "name": "delegation",
                      "type": "tuple"
                    },
                    {
                      "internalType": "bytes",
                      "name": "signature",
                      "type": "bytes"
                    }
                  ],
                  "internalType": "struct SignedDelegation[]",
                  "name": "authority",
                  "type": "tuple[]"
                }
              ],
              "internalType": "struct Invocation[]",
              "name": "batch",
              "type": "tuple[]"
            },
            {
              "components": [
                {
                  "internalType": "uint256",
                  "name": "nonce",
                  "type": "uint256"
                },
                {
                  "internalType": "uint256",
                  "name": "queue",
                  "type": "uint256"
                }
              ],
              "internalType": "struct ReplayProtection",
              "name": "replayProtection",
              "type": "tuple"
            }
          ],
          "internalType": "struct Invocations",
          "name": "invocations",
          "type": "tuple"
        }
      ],
      "name": "getInvocationsTypedDataHash",
      "outputs": [
        {
          "internalType": "bytes32",
          "name": "",
          "type": "bytes32"
        }
      ],
      "stateMutability": "view",
      "type": "function"
    },
    {
      "inputs": [
        {
          "components": [
            {
              "components": [
                {
                  "components": [
                    {
                      "components": [
                        {
                          "internalType": "address",
                          "name": "to",
                          "type": "address"
                        },
                        {
                          "internalType": "uint256",
                          "name": "gasLimit",
                          "type": "uint256"
                        },
                        {
                          "internalType": "bytes",
                          "name": "data",
                          "type": "bytes"
                        }
                      ],
                      "internalType": "struct Transaction",
                      "name": "transaction",
                      "type": "tuple"
                    },
                    {
                      "components": [
                        {
                          "components": [
                            {
                              "internalType": "address",
                              "name": "delegate",
                              "type": "address"
                            },
                            {
                              "internalType": "bytes32",
                              "name": "authority",
                              "type": "bytes32"
                            },
                            {
                              "components": [
                                {
                                  "internalType": "address",
                                  "name": "enforcer",
                                  "type": "address"
                                },
                                {
                                  "internalType": "bytes",
                                  "name": "terms",
                                  "type": "bytes"
                                }
                              ],
                              "internalType": "struct Caveat[]",
                              "name": "caveats",
                              "type": "tuple[]"
                            }
                          ],
                          "internalType": "struct Delegation",
                          "name": "delegation",
                          "type": "tuple"
                        },
                        {
                          "internalType": "bytes",
                          "name": "signature",
                          "type": "bytes"
                        }
                      ],
                      "internalType": "struct SignedDelegation[]",
                      "name": "authority",
                      "type": "tuple[]"
                    }
                  ],
                  "internalType": "struct Invocation[]",
                  "name": "batch",
                  "type": "tuple[]"
                },
                {
                  "components": [
                    {
                      "internalType": "uint256",
                      "name": "nonce",
                      "type": "uint256"
                    },
                    {
                      "internalType": "uint256",
                      "name": "queue",
                      "type": "uint256"
                    }
                  ],
                  "internalType": "struct ReplayProtection",
                  "name": "replayProtection",
                  "type": "tuple"
                }
              ],
              "internalType": "struct Invocations",
              "name": "invocations",
              "type": "tuple"
            },
            {
              "internalType": "bytes",
              "name": "signature",
              "type": "bytes"
            }
          ],
          "internalType": "struct SignedInvocation[]",
          "name": "signedInvocations",
          "type": "tuple[]"
        }
      ],
      "name": "invoke",
      "outputs": [
        {
          "internalType": "bool",
          "name": "success",
          "type": "bool"
        }
      ],
      "stateMutability": "nonpayable",
      "type": "function"
    },
    {
      "inputs": [
        {
          "internalType": "string",
          "name": "",
          "type": "string"
        }
      ],
      "name": "isMember",
      "outputs": [
        {
          "internalType": "bool",
          "name": "",
          "type": "bool"
        }
      ],
      "stateMutability": "view",
      "type": "function"
    },
    {
      "inputs": [
        {
          "internalType": "string",
          "name": "",
          "type": "string"
        }
      ],
      "name": "isPhisher",
      "outputs": [
        {
          "internalType": "bool",
          "name": "",
          "type": "bool"
        }
      ],
      "stateMutability": "view",
      "type": "function"
    },
    {
      "inputs": [
        {
          "internalType": "address",
          "name": "",
          "type": "address"
        },
        {
          "internalType": "uint256",
          "name": "",
          "type": "uint256"
        }
      ],
      "name": "multiNonce",
      "outputs": [
        {
          "internalType": "uint256",
          "name": "",
          "type": "uint256"
        }
      ],
      "stateMutability": "view",
      "type": "function"
    },
    {
      "inputs": [],
      "name": "owner",
      "outputs": [
        {
          "internalType": "address",
          "name": "",
          "type": "address"
        }
      ],
      "stateMutability": "view",
      "type": "function"
    },
    {
      "inputs": [],
      "name": "renounceOwnership",
      "outputs": [],
      "stateMutability": "nonpayable",
      "type": "function"
    },
    {
      "inputs": [
        {
          "components": [
            {
              "components": [
                {
                  "internalType": "address",
                  "name": "delegate",
                  "type": "address"
                },
                {
                  "internalType": "bytes32",
                  "name": "authority",
                  "type": "bytes32"
                },
                {
                  "components": [
                    {
                      "internalType": "address",
                      "name": "enforcer",
                      "type": "address"
                    },
                    {
                      "internalType": "bytes",
                      "name": "terms",
                      "type": "bytes"
                    }
                  ],
                  "internalType": "struct Caveat[]",
                  "name": "caveats",
                  "type": "tuple[]"
                }
              ],
              "internalType": "struct Delegation",
              "name": "delegation",
              "type": "tuple"
            },
            {
              "internalType": "bytes",
              "name": "signature",
              "type": "bytes"
            }
          ],
          "internalType": "struct SignedDelegation",
          "name": "signedDelegation",
          "type": "tuple"
        },
        {
          "components": [
            {
              "internalType": "bytes",
              "name": "signature",
              "type": "bytes"
            },
            {
              "components": [
                {
                  "internalType": "bytes32",
                  "name": "delegationHash",
                  "type": "bytes32"
                }
              ],
              "internalType": "struct IntentionToRevoke",
              "name": "intentionToRevoke",
              "type": "tuple"
            }
          ],
          "internalType": "struct SignedIntentionToRevoke",
          "name": "signedIntentionToRevoke",
          "type": "tuple"
        }
      ],
      "name": "revokeDelegation",
      "outputs": [],
      "stateMutability": "nonpayable",
      "type": "function"
    },
    {
      "inputs": [
        {
          "internalType": "address",
          "name": "newOwner",
          "type": "address"
        }
      ],
      "name": "transferOwnership",
      "outputs": [],
      "stateMutability": "nonpayable",
      "type": "function"
    },
    {
      "inputs": [
        {
          "components": [
            {
              "components": [
                {
                  "internalType": "address",
                  "name": "delegate",
                  "type": "address"
                },
                {
                  "internalType": "bytes32",
                  "name": "authority",
                  "type": "bytes32"
                },
                {
                  "components": [
                    {
                      "internalType": "address",
                      "name": "enforcer",
                      "type": "address"
                    },
                    {
                      "internalType": "bytes",
                      "name": "terms",
                      "type": "bytes"
                    }
                  ],
                  "internalType": "struct Caveat[]",
                  "name": "caveats",
                  "type": "tuple[]"
                }
              ],
              "internalType": "struct Delegation",
              "name": "delegation",
              "type": "tuple"
            },
            {
              "internalType": "bytes",
              "name": "signature",
              "type": "bytes"
            }
          ],
          "internalType": "struct SignedDelegation",
          "name": "signedDelegation",
          "type": "tuple"
        }
      ],
      "name": "verifyDelegationSignature",
      "outputs": [
        {
          "internalType": "address",
          "name": "",
          "type": "address"
        }
      ],
      "stateMutability": "view",
      "type": "function"
    },
    {
      "inputs": [
        {
          "components": [
            {
              "internalType": "bytes",
              "name": "signature",
              "type": "bytes"
            },
            {
              "components": [
                {
                  "internalType": "bytes32",
                  "name": "delegationHash",
                  "type": "bytes32"
                }
              ],
              "internalType": "struct IntentionToRevoke",
              "name": "intentionToRevoke",
              "type": "tuple"
            }
          ],
          "internalType": "struct SignedIntentionToRevoke",
          "name": "signedIntentionToRevoke",
          "type": "tuple"
        }
      ],
      "name": "verifyIntentionToRevokeSignature",
      "outputs": [
        {
          "internalType": "address",
          "name": "",
          "type": "address"
        }
      ],
      "stateMutability": "view",
      "type": "function"
    },
    {
      "inputs": [
        {
          "components": [
            {
              "components": [
                {
                  "components": [
                    {
                      "components": [
                        {
                          "internalType": "address",
                          "name": "to",
                          "type": "address"
                        },
                        {
                          "internalType": "uint256",
                          "name": "gasLimit",
                          "type": "uint256"
                        },
                        {
                          "internalType": "bytes",
                          "name": "data",
                          "type": "bytes"
                        }
                      ],
                      "internalType": "struct Transaction",
                      "name": "transaction",
                      "type": "tuple"
                    },
                    {
                      "components": [
                        {
                          "components": [
                            {
                              "internalType": "address",
                              "name": "delegate",
                              "type": "address"
                            },
                            {
                              "internalType": "bytes32",
                              "name": "authority",
                              "type": "bytes32"
                            },
                            {
                              "components": [
                                {
                                  "internalType": "address",
                                  "name": "enforcer",
                                  "type": "address"
                                },
                                {
                                  "internalType": "bytes",
                                  "name": "terms",
                                  "type": "bytes"
                                }
                              ],
                              "internalType": "struct Caveat[]",
                              "name": "caveats",
                              "type": "tuple[]"
                            }
                          ],
                          "internalType": "struct Delegation",
                          "name": "delegation",
                          "type": "tuple"
                        },
                        {
                          "internalType": "bytes",
                          "name": "signature",
                          "type": "bytes"
                        }
                      ],
                      "internalType": "struct SignedDelegation[]",
                      "name": "authority",
                      "type": "tuple[]"
                    }
                  ],
                  "internalType": "struct Invocation[]",
                  "name": "batch",
                  "type": "tuple[]"
                },
                {
                  "components": [
                    {
                      "internalType": "uint256",
                      "name": "nonce",
                      "type": "uint256"
                    },
                    {
                      "internalType": "uint256",
                      "name": "queue",
                      "type": "uint256"
                    }
                  ],
                  "internalType": "struct ReplayProtection",
                  "name": "replayProtection",
                  "type": "tuple"
                }
              ],
              "internalType": "struct Invocations",
              "name": "invocations",
              "type": "tuple"
            },
            {
              "internalType": "bytes",
              "name": "signature",
              "type": "bytes"
            }
          ],
          "internalType": "struct SignedInvocation",
          "name": "signedInvocation",
          "type": "tuple"
        }
      ],
      "name": "verifyInvocationSignature",
      "outputs": [
        {
          "internalType": "address",
          "name": "",
          "type": "address"
        }
      ],
      "stateMutability": "view",
      "type": "function"
    }
  ],
  "bytecode": "0x60a06040523480156200001157600080fd5b5060405162002a2138038062002a218339810160408190526200003491620001ab565b8080604051806040016040528060018152602001603160f81b8152506200006a62000064620000e760201b60201c565b62000145565b8151602080840191909120825182840120604080517f8b73c3c69bb8fe3d512ecc4cf759cc79239f7b179b0ffacaa9a75d522b39400f818601528082019390935260608301919091524660808301523060a0808401919091528151808403909101815260c090920190528051910120608052506200028792505050565b60003033036200013f57600080368080601f0160208091040260200160405190810160405280939291908181526020018383808284376000920191909152505050503601516001600160a01b03169150620001429050565b50335b90565b600080546001600160a01b038381166001600160a01b0319831681178455604051919092169283917f8be0079c531659141344cd1fd0a4f28419497f9722a3daafe3b4186f6b6457e09190a35050565b634e487b7160e01b600052604160045260246000fd5b60006020808385031215620001bf57600080fd5b82516001600160401b0380821115620001d757600080fd5b818501915085601f830112620001ec57600080fd5b81518181111562000201576200020162000195565b604051601f8201601f19908116603f011681019083821181831017156200022c576200022c62000195565b8160405282815288868487010111156200024557600080fd5b600093505b828410156200026957848401860151818501870152928501926200024a565b828411156200027b5760008684830101525b98975050505050505050565b608051612769620002b86000396000818161056501528181610a3701528181610d160152610e2c01526127696000f3fe608060405234801561001057600080fd5b50600436106102065760003560e01c8063736f7ce71161011a57806398bc186a116100ad578063caced6c51161007c578063caced6c5146104b0578063d327c1eb146104c3578063d6d75cbf1461054d578063dfe86ac514610560578063f2fde38b1461058757600080fd5b806398bc186a14610464578063a2e01f7514610477578063a8444b3a1461048a578063bb5af5bd1461049d57600080fd5b80638a04499e116100e95780638a04499e146104025780638da5cb5b1461042d5780638dc34c4d1461043e57806397182ed61461045157600080fd5b8063736f7ce71461039b57806374e9d189146103ae5780637b577b58146103dc578063870eea55146103ef57600080fd5b80635cf1b24a1161019d5780636c2b12531161016c5780636c2b1253146103475780636f9658031461035a578063715018a61461036d5780637234eefe14610375578063732c36e81461038857600080fd5b80635cf1b24a146102e05780635d44b585146102f357806360b6d768146103215780636b6dc9de1461033457600080fd5b80633a481821116101d95780633a48182114610292578063463a3ce4146102a55780635068de4c146102ba5780635c6d9f0c146102cd57600080fd5b80630162f7221461020b57806308aaf6b0146102495780632f52a2fd1461025c5780632fad7efc1461026f575b600080fd5b61023661021936600461177c565b600160209081526000928352604080842090915290825290205481565b6040519081526020015b60405180910390f35b61023661025736600461191f565b61059a565b61023661026a366004611a67565b61061a565b61028261027d366004611ae6565b610685565b6040519015158152602001610240565b6102366102a0366004611d3f565b61074c565b6102b86102b3366004611dc2565b6107c3565b005b6102826102c8366004611e18565b61084e565b6102826102db366004611ae6565b6109bf565b6102366102ee366004611e8d565b6109d5565b610282610301366004611ec1565b805160208183018101805160038252928201919093012091525460ff1681565b61023661032f366004611f7e565b610a32565b6102b8610342366004611dc2565b610a82565b610236610355366004611fb2565b610b04565b610236610368366004611fe6565b610b61565b6102b8610bb2565b610236610383366004611f7e565b610bc6565b610236610396366004612091565b610c04565b6102366103a93660046120c5565b610c41565b6102826103bc366004611ec1565b805160208183018101805160048252928201919093012091525460ff1681565b6102366103ea3660046120f9565b610ca9565b6102366103fd36600461212d565b610d11565b610415610410366004611fb2565b610d3e565b6040516001600160a01b039091168152602001610240565b6000546001600160a01b0316610415565b6102b861044c366004612161565b610d68565b61023661045f366004611a67565b610e27565b6102366104723660046121c4565b610e54565b61023661048536600461226f565b610ea0565b610415610498366004612091565b610f0c565b6102366104ab3660046122e2565b610f30565b6104156104be3660046122e2565b610f61565b6102366104d1366004612316565b8351602094850120835193850193909320604080517f8b73c3c69bb8fe3d512ecc4cf759cc79239f7b179b0ffacaa9a75d522b39400f8188015280820195909552606085019190915260808401929092526001600160a01b031660a0808401919091528151808403909101815260c09092019052805191012090565b61023661055b36600461212d565b610f8b565b6102367f000000000000000000000000000000000000000000000000000000000000000081565b6102b8610595366004612393565b610fcc565b6000807f80ad7e1b04ee6d994a125f4714ca0720908bd80ed16063ec8aee4b88e9253e2d83600001518460200151805190602001206040516020016105fb939291909283526001600160a01b03919091166020830152604082015260600190565b60408051601f1981840301815291905280516020909101209392505050565b6000807f409f5114779a253e700d775d7845e6efc1e83685ac59868d2df3d4de51c7d621836000015184602001516106558660400151610ca9565b6040805160208101959095526001600160a01b03909316928401929092526060830152608082015260a0016105fb565b6000805b8281101561074557368484838181106106a4576106a46123ae565b90506020028101906106b691906123c4565b905060006106c66104be836123e4565b9050610712818787868181106106de576106de6123ae565b90506020028101906106f091906123c4565b6106fa90806123f0565b60200180360381019061070d9190611fe6565b611045565b61072f61071f83806123f0565b6107299080612406565b8361110f565b505050808061073d90612465565b915050610689565b5092915050565b6000606060005b83518110156107b4578161077f858381518110610772576107726123ae565b60200260200101516109d5565b6040516020016107909291906124ae565b604051602081830303815290604052915080806107ac90612465565b915050610753565b50805160209091012092915050565b6107cb611525565b80600484846040516107de9291906124d0565b908152604051908190036020018120805492151560ff199093169290921790915561080c90849084906124d0565b6040519081900381208215158252907f88e1b1a43f3edcb9afe941dfea296f5bc32fab715b5fc9aa101ec26d87d2e8a2906020015b60405180910390a2505050565b60008181526002602052604081205460ff16156108b25760405162461bcd60e51b815260206004820152601b60248201527f44656c65676174696f6e20686173206265656e207265766f6b6564000000000060448201526064015b60405180910390fd5b60006108c160408501856124e0565b6108d091600491600091612526565b6108d991612550565b90506001600160e01b0319811663f2fde38b60e01b036109475760405162461bcd60e51b8152602060048201526024808201527f7472616e736665724f776e657273686970206973206e6f742064656c6567617460448201526361626c6560e01b60648201526084016108a9565b6001600160e01b03198116630f374f3b60e31b036109b35760405162461bcd60e51b8152602060048201526024808201527f72656e6f756e63654f776e657273686970206973206e6f742064656c6567617460448201526361626c6560e01b60648201526084016108a9565b50600195945050505050565b60006109cc83833361110f565b90505b92915050565b6000807fd97dd99b404d177890f06a8f0fc8e5ed0333fb2ebb6684360709066e8984f594610a068460000151610ea0565b610a138560200151610c41565b60408051602081019490945283019190915260608201526080016105fb565b6000807f0000000000000000000000000000000000000000000000000000000000000000610a5f84610bc6565b60405161190160f01b6020820152602281019290925260428201526062016105fb565b610a8a611525565b8060038484604051610a9d9291906124d0565b908152604051908190036020018120805492151560ff1990931692909217909155610acb90849084906124d0565b6040519081900381208215158252907f9d3712f4978fc20b17a1dfbcd563f9aded75d05b6019427a9eca23245220138b90602001610841565b6000807f3c36a06e1d288b0f94f565588317a46ad11bc3c96992109f9a2365a2737259a7610b35846000015161061a565b6020808601518051908201206040516105fb949392019283526020830191909152604082015260600190565b6000807fe8d3d963b33868fb116316bc3fd55e8f49123f30e4418f71e140d54b7cd3b2b9836000015184602001516040516020016105fb939291909283526020830191909152604082015260600190565b610bba611525565b610bc4600061159e565b565b6000807f08c69a206c06f5334b35ceb1186181a713b21aff02cf66285f375084fbef2eb8610bf7846000015161074c565b610a138560200151610b61565b6000807f1b0091a1d050ac3fa97e15af326cf512d740529b43d5750169acacda23de2788836000015180519060200120610a138560200151610f8b565b6000606060005b83518110156107b45781610c74858381518110610c6757610c676123ae565b6020026020010151610b04565b604051602001610c859291906124ae565b60405160208183030381529060405291508080610ca190612465565b915050610c48565b6000606060005b83518110156107b45781610cdc858381518110610ccf57610ccf6123ae565b602002602001015161059a565b604051602001610ced9291906124ae565b60405160208183030381529060405291508080610d0990612465565b915050610cb0565b6000807f0000000000000000000000000000000000000000000000000000000000000000610a5f84610f8b565b805160009081610d4d82610e27565b90506000610d5f8286602001516115ee565b95945050505050565b6000610d7661041084612580565b90506000610d866104988461258c565b9050806001600160a01b0316826001600160a01b031614610df95760405162461bcd60e51b815260206004820152602760248201527f4f6e6c7920746865207369676e65722063616e207265766f6b6520612064656c60448201526632b3b0ba34b7b760c91b60648201526084016108a9565b6000610e0761035586612580565b6000908152600260205260409020805460ff191660011790555050505050565b6000807f0000000000000000000000000000000000000000000000000000000000000000610a5f8461061a565b6000807f8b73c3c69bb8fe3d512ecc4cf759cc79239f7b179b0ffacaa9a75d522b39400f83600001518460200151856040015186606001516040516020016105fb9594939291906125c4565b6000807fb16dfdb3b8fa033fe30ac976cd4a50ad256b6811c80d90fcd0b323eec190047d836000015184602001518560400151805190602001206040516020016105fb94939291909384526001600160a01b039290921660208401526040830152606082015260800190565b602081015160009081610f1e82610d11565b90506000610d5f8286600001516115ee565b6000807fc32b6dfe0f988d1f2b13248cddd88e320ff0ae86e3ccfe38bab77a80f4477d44610b358460000151610bc6565b600080610f718360000151610a32565b90506000610f838285602001516115ee565b949350505050565b805160405160009182916105fb917f7148a5140265154d6c5200f68c3b86caca80512f179c3903dffd45aeaefc8ea891602001918252602082015260400190565b610fd4611525565b6001600160a01b0381166110395760405162461bcd60e51b815260206004820152602660248201527f4f776e61626c653a206e6577206f776e657220697320746865207a65726f206160448201526564647265737360d01b60648201526084016108a9565b6110428161159e565b50565b60208082015182516001600160a01b038516600090815260018085526040808320858452909552939020549192909161107d91612612565b81146110e55760405162461bcd60e51b815260206004820152603160248201527f4f6e652d61742d612d74696d65206f7264657220656e666f726365642e204e6f6044820152701b98d94c881a5cc81d1bdbc81cdb585b1b607a1b60648201526084016108a9565b6001600160a01b039093166000908152600160209081526040808320938352929052209190915550565b6000805b8381101561151d57600085858381811061112f5761112f6123ae565b905060200281019061114191906123c4565b61114a9061262a565b90506000808260200151516000036111625750849050805b6000805b8460200151518110156114025760008560200151828151811061118b5761118b6123ae565b6020026020010151905060006111a082610d3e565b9050826000036111b1578095508594505b846001600160a01b0316816001600160a01b03161461122b5760405162461bcd60e51b815260206004820152603060248201527f44656c65676174696f6e207369676e657220646f6573206e6f74206d6174636860448201526f103932b8bab4b932b21039b4b3b732b960811b60648201526084016108a9565b8151602081015185146112a65760405162461bcd60e51b815260206004820152603760248201527f44656c65676174696f6e20617574686f7269747920646f6573206e6f74206d6160448201527f7463682070726576696f75732064656c65676174696f6e00000000000000000060648201526084016108a9565b60006112b184610b04565b905060005b8260400151518161ffff1610156113e557600083604001518261ffff16815181106112e3576112e36123ae565b60200260200101516000015190506000816001600160a01b0316635068de4c86604001518561ffff168151811061131c5761131c6123ae565b6020026020010151602001518e60000151876040518463ffffffff1660e01b815260040161134c93929190612636565b6020604051808303816000875af115801561136b573d6000803e3d6000fd5b505050506040513d601f19601f8201168201806040525081019061138f9190612692565b9050806113d05760405162461bcd60e51b815260206004820152600f60248201526e10d85d99585d081c995a9958dd1959608a1b60448201526064016108a9565b505080806113dd906126b6565b9150506112b6565b509051955093508291506113fa905081612465565b915050611166565b50835180516001600160a01b0316301461145e5760405162461bcd60e51b815260206004820181905260248201527f496e766f636174696f6e2074617267657420646f6573206e6f74206d6174636860448201526064016108a9565b6040516001600160a01b0385811682528916907f185d11175440fcb6458fbc1889b02953452539ed80ad1da781a5449500f6d9609060200160405180910390a26114b6816000015182604001518360200151876116c5565b9650866115055760405162461bcd60e51b815260206004820152601a60248201527f44656c656761746f7220657865637574696f6e206661696c656400000000000060448201526064016108a9565b5050505050808061151590612465565b915050611113565b509392505050565b61152d611704565b6001600160a01b03166115486000546001600160a01b031690565b6001600160a01b031614610bc45760405162461bcd60e51b815260206004820181905260248201527f4f776e61626c653a2063616c6c6572206973206e6f7420746865206f776e657260448201526064016108a9565b600080546001600160a01b038381166001600160a01b0319831681178455604051919092169283917f8be0079c531659141344cd1fd0a4f28419497f9722a3daafe3b4186f6b6457e09190a35050565b600080600080845160411461160957600093505050506109cf565b50505060208201516040830151606084015160001a601b81101561163557611632601b826126d7565b90505b8060ff16601b1415801561164d57508060ff16601c14155b1561165e57600093505050506109cf565b60408051600081526020810180835288905260ff831691810191909152606081018490526080810183905260019060a0016020604051602081039080840390855afa1580156116b1573d6000803e3d6000fd5b5050506020604051035193505050506109cf565b60008084836040516020016116db9291906126fc565b604051602081830303815290604052905060008082516020840160008a89f19695505050505050565b600030330361175a57600080368080601f0160208091040260200160405190810160405280939291908181526020018383808284376000920191909152505050503601516001600160a01b0316915061175d9050565b50335b90565b80356001600160a01b038116811461177757600080fd5b919050565b6000806040838503121561178f57600080fd5b61179883611760565b946020939093013593505050565b634e487b7160e01b600052604160045260246000fd5b604080519081016001600160401b03811182821017156117de576117de6117a6565b60405290565b604051606081016001600160401b03811182821017156117de576117de6117a6565b604051608081016001600160401b03811182821017156117de576117de6117a6565b604051601f8201601f191681016001600160401b0381118282101715611850576118506117a6565b604052919050565b600082601f83011261186957600080fd5b81356001600160401b03811115611882576118826117a6565b611895601f8201601f1916602001611828565b8181528460208386010111156118aa57600080fd5b816020850160208301376000918101602001919091529392505050565b6000604082840312156118d957600080fd5b6118e16117bc565b90506118ec82611760565b815260208201356001600160401b0381111561190757600080fd5b61191384828501611858565b60208301525092915050565b60006020828403121561193157600080fd5b81356001600160401b0381111561194757600080fd5b610f83848285016118c7565b60006001600160401b0382111561196c5761196c6117a6565b5060051b60200190565b600082601f83011261198757600080fd5b8135602061199c61199783611953565b611828565b82815260059290921b840181019181810190868411156119bb57600080fd5b8286015b848110156119fa5780356001600160401b038111156119de5760008081fd5b6119ec8986838b01016118c7565b8452509183019183016119bf565b509695505050505050565b600060608284031215611a1757600080fd5b611a1f6117e4565b9050611a2a82611760565b81526020820135602082015260408201356001600160401b03811115611a4f57600080fd5b611a5b84828501611976565b60408301525092915050565b600060208284031215611a7957600080fd5b81356001600160401b03811115611a8f57600080fd5b610f8384828501611a05565b60008083601f840112611aad57600080fd5b5081356001600160401b03811115611ac457600080fd5b6020830191508360208260051b8501011115611adf57600080fd5b9250929050565b60008060208385031215611af957600080fd5b82356001600160401b03811115611b0f57600080fd5b611b1b85828601611a9b565b90969095509350505050565b600060608284031215611b3957600080fd5b611b416117e4565b9050611b4c82611760565b81526020820135602082015260408201356001600160401b03811115611b7157600080fd5b611a5b84828501611858565b600060408284031215611b8f57600080fd5b611b976117bc565b905081356001600160401b0380821115611bb057600080fd5b611bbc85838601611a05565b83526020840135915080821115611bd257600080fd5b5061191384828501611858565b600082601f830112611bf057600080fd5b81356020611c0061199783611953565b82815260059290921b84018101918181019086841115611c1f57600080fd5b8286015b848110156119fa5780356001600160401b03811115611c425760008081fd5b611c508986838b0101611b7d565b845250918301918301611c23565b600060408284031215611c7057600080fd5b611c786117bc565b905081356001600160401b0380821115611c9157600080fd5b611c9d85838601611b27565b83526020840135915080821115611cb357600080fd5b5061191384828501611bdf565b600082601f830112611cd157600080fd5b81356020611ce161199783611953565b82815260059290921b84018101918181019086841115611d0057600080fd5b8286015b848110156119fa5780356001600160401b03811115611d235760008081fd5b611d318986838b0101611c5e565b845250918301918301611d04565b600060208284031215611d5157600080fd5b81356001600160401b03811115611d6757600080fd5b610f8384828501611cc0565b60008083601f840112611d8557600080fd5b5081356001600160401b03811115611d9c57600080fd5b602083019150836020828501011115611adf57600080fd5b801515811461104257600080fd5b600080600060408486031215611dd757600080fd5b83356001600160401b03811115611ded57600080fd5b611df986828701611d73565b9094509250506020840135611e0d81611db4565b809150509250925092565b60008060008060608587031215611e2e57600080fd5b84356001600160401b0380821115611e4557600080fd5b611e5188838901611d73565b90965094506020870135915080821115611e6a57600080fd5b50850160608188031215611e7d57600080fd5b9396929550929360400135925050565b600060208284031215611e9f57600080fd5b81356001600160401b03811115611eb557600080fd5b610f8384828501611c5e565b600060208284031215611ed357600080fd5b81356001600160401b03811115611ee957600080fd5b610f8384828501611858565b600060408284031215611f0757600080fd5b611f0f6117bc565b9050813581526020820135602082015292915050565b600060608284031215611f3757600080fd5b611f3f6117bc565b905081356001600160401b03811115611f5757600080fd5b611f6384828501611cc0565b825250611f738360208401611ef5565b602082015292915050565b600060208284031215611f9057600080fd5b81356001600160401b03811115611fa657600080fd5b610f8384828501611f25565b600060208284031215611fc457600080fd5b81356001600160401b03811115611fda57600080fd5b610f8384828501611b7d565b600060408284031215611ff857600080fd5b6109cc8383611ef5565b60006020828403121561201457600080fd5b604051602081018181106001600160401b0382111715612036576120366117a6565b6040529135825250919050565b60006040828403121561205557600080fd5b61205d6117bc565b905081356001600160401b0381111561207557600080fd5b61208184828501611858565b825250611f738360208401612002565b6000602082840312156120a357600080fd5b81356001600160401b038111156120b957600080fd5b610f8384828501612043565b6000602082840312156120d757600080fd5b81356001600160401b038111156120ed57600080fd5b610f8384828501611bdf565b60006020828403121561210b57600080fd5b81356001600160401b0381111561212157600080fd5b610f8384828501611976565b60006020828403121561213f57600080fd5b6109cc8383612002565b60006040828403121561215b57600080fd5b50919050565b6000806040838503121561217457600080fd5b82356001600160401b038082111561218b57600080fd5b61219786838701612149565b935060208501359150808211156121ad57600080fd5b506121ba85828601612149565b9150509250929050565b6000602082840312156121d657600080fd5b81356001600160401b03808211156121ed57600080fd5b908301906080828603121561220157600080fd5b612209611806565b82358281111561221857600080fd5b61222487828601611858565b82525060208301358281111561223957600080fd5b61224587828601611858565b6020830152506040830135604082015261226160608401611760565b606082015295945050505050565b60006020828403121561228157600080fd5b81356001600160401b0381111561229757600080fd5b610f8384828501611b27565b6000604082840312156122b557600080fd5b6122bd6117bc565b905081356001600160401b03808211156122d657600080fd5b611bbc85838601611f25565b6000602082840312156122f457600080fd5b81356001600160401b0381111561230a57600080fd5b610f83848285016122a3565b6000806000806080858703121561232c57600080fd5b84356001600160401b038082111561234357600080fd5b61234f88838901611858565b9550602087013591508082111561236557600080fd5b5061237287828801611858565b9350506040850135915061238860608601611760565b905092959194509250565b6000602082840312156123a557600080fd5b6109cc82611760565b634e487b7160e01b600052603260045260246000fd5b60008235603e198336030181126123da57600080fd5b9190910192915050565b60006109cf36836122a3565b60008235605e198336030181126123da57600080fd5b6000808335601e1984360301811261241d57600080fd5b8301803591506001600160401b0382111561243757600080fd5b6020019150600581901b3603821315611adf57600080fd5b634e487b7160e01b600052601160045260246000fd5b6000600182016124775761247761244f565b5060010190565b60005b83811015612499578181015183820152602001612481565b838111156124a8576000848401525b50505050565b600083516124c081846020880161247e565b9190910191825250602001919050565b8183823760009101908152919050565b6000808335601e198436030181126124f757600080fd5b8301803591506001600160401b0382111561251157600080fd5b602001915036819003821315611adf57600080fd5b6000808585111561253657600080fd5b8386111561254357600080fd5b5050820193919092039150565b6001600160e01b031981358181169160048510156125785780818660040360031b1b83161692505b505092915050565b60006109cf3683611b7d565b60006109cf3683612043565b600081518084526125b081602086016020860161247e565b601f01601f19169290920160200192915050565b85815260a0602082015260006125dd60a0830187612598565b82810360408401526125ef8187612598565b606084019590955250506001600160a01b03919091166080909101529392505050565b600082198211156126255761262561244f565b500190565b60006109cf3683611c5e565b6060815260006126496060830186612598565b828103602084015260018060a01b038551168152602085015160208201526040850151606060408301526126806060830182612598565b92505050826040830152949350505050565b6000602082840312156126a457600080fd5b81516126af81611db4565b9392505050565b600061ffff8083168181036126cd576126cd61244f565b6001019392505050565b600060ff821660ff84168060ff038211156126f4576126f461244f565b019392505050565b6000835161270e81846020880161247e565b60609390931b6bffffffffffffffffffffffff1916919092019081526014019291505056fea26469706673582212207367fef8512ba75ba8cb5cef8e5a8ec5b4f4e4180832006f5498819e2166900064736f6c634300080d0033",
  "linkReferences": {},
  "deployedLinkReferences": {}
}