{
  "_format": "hh-sol-artifact-1",
  "contractName": "DelegatableToken",
  "sourceName": "contracts/Examples/DelegatableERC20.sol",
  "abi": [
    {
      "inputs": [
        {
          "internalType": "string",
          "name": "name",
          "type": "string"
        },
        {
          "internalType": "string",
          "name": "symbol",
          "type": "string"
        },
        {
          "internalType": "uint256",
          "name": "amount",
          "type": "uint256"
        }
      ],
      "stateMutability": "nonpayable",
      "type": "constructor"
    },
    {
      "anonymous": false,
      "inputs": [
        {
          "indexed": true,
          "internalType": "address",
          "name": "owner",
          "type": "address"
        },
        {
          "indexed": true,
          "internalType": "address",
          "name": "spender",
          "type": "address"
        },
        {
          "indexed": false,
          "internalType": "uint256",
          "name": "value",
          "type": "uint256"
        }
      ],
      "name": "Approval",
      "type": "event"
    },
    {
      "anonymous": false,
      "inputs": [
        {
          "indexed": false,
          "internalType": "address",
          "name": "principal",
          "type": "address"
        },
        {
          "indexed": true,
          "internalType": "address",
          "name": "agent",
          "type": "address"
        }
      ],
      "name": "DelegationTriggered",
      "type": "event"
    },
    {
      "anonymous": false,
      "inputs": [
        {
          "indexed": true,
          "internalType": "address",
          "name": "previousOwner",
          "type": "address"
        },
        {
          "indexed": true,
          "internalType": "address",
          "name": "newOwner",
          "type": "address"
        }
      ],
      "name": "OwnershipTransferred",
      "type": "event"
    },
    {
      "anonymous": false,
      "inputs": [
        {
          "indexed": true,
          "internalType": "address",
          "name": "from",
          "type": "address"
        },
        {
          "indexed": true,
          "internalType": "address",
          "name": "to",
          "type": "address"
        },
        {
          "indexed": false,
          "internalType": "uint256",
          "name": "value",
          "type": "uint256"
        }
      ],
      "name": "Transfer",
      "type": "event"
    },
    {
      "inputs": [
        {
          "components": [
            {
              "internalType": "address",
              "name": "enforcer",
              "type": "address"
            },
            {
              "internalType": "bytes",
              "name": "terms",
              "type": "bytes"
            }
          ],
          "internalType": "struct Caveat[]",
          "name": "_input",
          "type": "tuple[]"
        }
      ],
      "name": "GET_CAVEAT_ARRAY_PACKETHASH",
      "outputs": [
        {
          "internalType": "bytes32",
          "name": "",
          "type": "bytes32"
        }
      ],
      "stateMutability": "pure",
      "type": "function"
    },
    {
      "inputs": [
        {
          "components": [
            {
              "internalType": "address",
              "name": "enforcer",
              "type": "address"
            },
            {
              "internalType": "bytes",
              "name": "terms",
              "type": "bytes"
            }
          ],
          "internalType": "struct Caveat",
          "name": "_input",
          "type": "tuple"
        }
      ],
      "name": "GET_CAVEAT_PACKETHASH",
      "outputs": [
        {
          "internalType": "bytes32",
          "name": "",
          "type": "bytes32"
        }
      ],
      "stateMutability": "pure",
      "type": "function"
    },
    {
      "inputs": [
        {
          "components": [
            {
              "internalType": "address",
              "name": "delegate",
              "type": "address"
            },
            {
              "internalType": "bytes32",
              "name": "authority",
              "type": "bytes32"
            },
            {
              "components": [
                {
                  "internalType": "address",
                  "name": "enforcer",
                  "type": "address"
                },
                {
                  "internalType": "bytes",
                  "name": "terms",
                  "type": "bytes"
                }
              ],
              "internalType": "struct Caveat[]",
              "name": "caveats",
              "type": "tuple[]"
            }
          ],
          "internalType": "struct Delegation",
          "name": "_input",
          "type": "tuple"
        }
      ],
      "name": "GET_DELEGATION_PACKETHASH",
      "outputs": [
        {
          "internalType": "bytes32",
          "name": "",
          "type": "bytes32"
        }
      ],
      "stateMutability": "pure",
      "type": "function"
    },
    {
      "inputs": [
        {
          "components": [
            {
              "internalType": "string",
              "name": "name",
              "type": "string"
            },
            {
              "internalType": "string",
              "name": "version",
              "type": "string"
            },
            {
              "internalType": "uint256",
              "name": "chainId",
              "type": "uint256"
            },
            {
              "internalType": "address",
              "name": "verifyingContract",
              "type": "address"
            }
          ],
          "internalType": "struct EIP712Domain",
          "name": "_input",
          "type": "tuple"
        }
      ],
      "name": "GET_EIP712DOMAIN_PACKETHASH",
      "outputs": [
        {
          "internalType": "bytes32",
          "name": "",
          "type": "bytes32"
        }
      ],
      "stateMutability": "pure",
      "type": "function"
    },
    {
      "inputs": [
        {
          "components": [
            {
              "internalType": "bytes32",
              "name": "delegationHash",
              "type": "bytes32"
            }
          ],
          "internalType": "struct IntentionToRevoke",
          "name": "_input",
          "type": "tuple"
        }
      ],
      "name": "GET_INTENTIONTOREVOKE_PACKETHASH",
      "outputs": [
        {
          "internalType": "bytes32",
          "name": "",
          "type": "bytes32"
        }
      ],
      "stateMutability": "pure",
      "type": "function"
    },
    {
      "inputs": [
        {
          "components": [
            {
              "components": [
                {
                  "components": [
                    {
                      "internalType": "address",
                      "name": "to",
                      "type": "address"
                    },
                    {
                      "internalType": "uint256",
                      "name": "gasLimit",
                      "type": "uint256"
                    },
                    {
                      "internalType": "bytes",
                      "name": "data",
                      "type": "bytes"
                    }
                  ],
                  "internalType": "struct Transaction",
                  "name": "transaction",
                  "type": "tuple"
                },
                {
                  "components": [
                    {
                      "components": [
                        {
                          "internalType": "address",
                          "name": "delegate",
                          "type": "address"
                        },
                        {
                          "internalType": "bytes32",
                          "name": "authority",
                          "type": "bytes32"
                        },
                        {
                          "components": [
                            {
                              "internalType": "address",
                              "name": "enforcer",
                              "type": "address"
                            },
                            {
                              "internalType": "bytes",
                              "name": "terms",
                              "type": "bytes"
                            }
                          ],
                          "internalType": "struct Caveat[]",
                          "name": "caveats",
                          "type": "tuple[]"
                        }
                      ],
                      "internalType": "struct Delegation",
                      "name": "delegation",
                      "type": "tuple"
                    },
                    {
                      "internalType": "bytes",
                      "name": "signature",
                      "type": "bytes"
                    }
                  ],
                  "internalType": "struct SignedDelegation[]",
                  "name": "authority",
                  "type": "tuple[]"
                }
              ],
              "internalType": "struct Invocation[]",
              "name": "batch",
              "type": "tuple[]"
            },
            {
              "components": [
                {
                  "internalType": "uint256",
                  "name": "nonce",
                  "type": "uint256"
                },
                {
                  "internalType": "uint256",
                  "name": "queue",
                  "type": "uint256"
                }
              ],
              "internalType": "struct ReplayProtection",
              "name": "replayProtection",
              "type": "tuple"
            }
          ],
          "internalType": "struct Invocations",
          "name": "_input",
          "type": "tuple"
        }
      ],
      "name": "GET_INVOCATIONS_PACKETHASH",
      "outputs": [
        {
          "internalType": "bytes32",
          "name": "",
          "type": "bytes32"
        }
      ],
      "stateMutability": "pure",
      "type": "function"
    },
    {
      "inputs": [
        {
          "components": [
            {
              "components": [
                {
                  "internalType": "address",
                  "name": "to",
                  "type": "address"
                },
                {
                  "internalType": "uint256",
                  "name": "gasLimit",
                  "type": "uint256"
                },
                {
                  "internalType": "bytes",
                  "name": "data",
                  "type": "bytes"
                }
              ],
              "internalType": "struct Transaction",
              "name": "transaction",
              "type": "tuple"
            },
            {
              "components": [
                {
                  "components": [
                    {
                      "internalType": "address",
                      "name": "delegate",
                      "type": "address"
                    },
                    {
                      "internalType": "bytes32",
                      "name": "authority",
                      "type": "bytes32"
                    },
                    {
                      "components": [
                        {
                          "internalType": "address",
                          "name": "enforcer",
                          "type": "address"
                        },
                        {
                          "internalType": "bytes",
                          "name": "terms",
                          "type": "bytes"
                        }
                      ],
                      "internalType": "struct Caveat[]",
                      "name": "caveats",
                      "type": "tuple[]"
                    }
                  ],
                  "internalType": "struct Delegation",
                  "name": "delegation",
                  "type": "tuple"
                },
                {
                  "internalType": "bytes",
                  "name": "signature",
                  "type": "bytes"
                }
              ],
              "internalType": "struct SignedDelegation[]",
              "name": "authority",
              "type": "tuple[]"
            }
          ],
          "internalType": "struct Invocation[]",
          "name": "_input",
          "type": "tuple[]"
        }
      ],
      "name": "GET_INVOCATION_ARRAY_PACKETHASH",
      "outputs": [
        {
          "internalType": "bytes32",
          "name": "",
          "type": "bytes32"
        }
      ],
      "stateMutability": "pure",
      "type": "function"
    },
    {
      "inputs": [
        {
          "components": [
            {
              "components": [
                {
                  "internalType": "address",
                  "name": "to",
                  "type": "address"
                },
                {
                  "internalType": "uint256",
                  "name": "gasLimit",
                  "type": "uint256"
                },
                {
                  "internalType": "bytes",
                  "name": "data",
                  "type": "bytes"
                }
              ],
              "internalType": "struct Transaction",
              "name": "transaction",
              "type": "tuple"
            },
            {
              "components": [
                {
                  "components": [
                    {
                      "internalType": "address",
                      "name": "delegate",
                      "type": "address"
                    },
                    {
                      "internalType": "bytes32",
                      "name": "authority",
                      "type": "bytes32"
                    },
                    {
                      "components": [
                        {
                          "internalType": "address",
                          "name": "enforcer",
                          "type": "address"
                        },
                        {
                          "internalType": "bytes",
                          "name": "terms",
                          "type": "bytes"
                        }
                      ],
                      "internalType": "struct Caveat[]",
                      "name": "caveats",
                      "type": "tuple[]"
                    }
                  ],
                  "internalType": "struct Delegation",
                  "name": "delegation",
                  "type": "tuple"
                },
                {
                  "internalType": "bytes",
                  "name": "signature",
                  "type": "bytes"
                }
              ],
              "internalType": "struct SignedDelegation[]",
              "name": "authority",
              "type": "tuple[]"
            }
          ],
          "internalType": "struct Invocation",
          "name": "_input",
          "type": "tuple"
        }
      ],
      "name": "GET_INVOCATION_PACKETHASH",
      "outputs": [
        {
          "internalType": "bytes32",
          "name": "",
          "type": "bytes32"
        }
      ],
      "stateMutability": "pure",
      "type": "function"
    },
    {
      "inputs": [
        {
          "components": [
            {
              "internalType": "uint256",
              "name": "nonce",
              "type": "uint256"
            },
            {
              "internalType": "uint256",
              "name": "queue",
              "type": "uint256"
            }
          ],
          "internalType": "struct ReplayProtection",
          "name": "_input",
          "type": "tuple"
        }
      ],
      "name": "GET_REPLAYPROTECTION_PACKETHASH",
      "outputs": [
        {
          "internalType": "bytes32",
          "name": "",
          "type": "bytes32"
        }
      ],
      "stateMutability": "pure",
      "type": "function"
    },
    {
      "inputs": [
        {
          "components": [
            {
              "components": [
                {
                  "internalType": "address",
                  "name": "delegate",
                  "type": "address"
                },
                {
                  "internalType": "bytes32",
                  "name": "authority",
                  "type": "bytes32"
                },
                {
                  "components": [
                    {
                      "internalType": "address",
                      "name": "enforcer",
                      "type": "address"
                    },
                    {
                      "internalType": "bytes",
                      "name": "terms",
                      "type": "bytes"
                    }
                  ],
                  "internalType": "struct Caveat[]",
                  "name": "caveats",
                  "type": "tuple[]"
                }
              ],
              "internalType": "struct Delegation",
              "name": "delegation",
              "type": "tuple"
            },
            {
              "internalType": "bytes",
              "name": "signature",
              "type": "bytes"
            }
          ],
          "internalType": "struct SignedDelegation[]",
          "name": "_input",
          "type": "tuple[]"
        }
      ],
      "name": "GET_SIGNEDDELEGATION_ARRAY_PACKETHASH",
      "outputs": [
        {
          "internalType": "bytes32",
          "name": "",
          "type": "bytes32"
        }
      ],
      "stateMutability": "pure",
      "type": "function"
    },
    {
      "inputs": [
        {
          "components": [
            {
              "components": [
                {
                  "internalType": "address",
                  "name": "delegate",
                  "type": "address"
                },
                {
                  "internalType": "bytes32",
                  "name": "authority",
                  "type": "bytes32"
                },
                {
                  "components": [
                    {
                      "internalType": "address",
                      "name": "enforcer",
                      "type": "address"
                    },
                    {
                      "internalType": "bytes",
                      "name": "terms",
                      "type": "bytes"
                    }
                  ],
                  "internalType": "struct Caveat[]",
                  "name": "caveats",
                  "type": "tuple[]"
                }
              ],
              "internalType": "struct Delegation",
              "name": "delegation",
              "type": "tuple"
            },
            {
              "internalType": "bytes",
              "name": "signature",
              "type": "bytes"
            }
          ],
          "internalType": "struct SignedDelegation",
          "name": "_input",
          "type": "tuple"
        }
      ],
      "name": "GET_SIGNEDDELEGATION_PACKETHASH",
      "outputs": [
        {
          "internalType": "bytes32",
          "name": "",
          "type": "bytes32"
        }
      ],
      "stateMutability": "pure",
      "type": "function"
    },
    {
      "inputs": [
        {
          "components": [
            {
              "internalType": "bytes",
              "name": "signature",
              "type": "bytes"
            },
            {
              "components": [
                {
                  "internalType": "bytes32",
                  "name": "delegationHash",
                  "type": "bytes32"
                }
              ],
              "internalType": "struct IntentionToRevoke",
              "name": "intentionToRevoke",
              "type": "tuple"
            }
          ],
          "internalType": "struct SignedIntentionToRevoke",
          "name": "_input",
          "type": "tuple"
        }
      ],
      "name": "GET_SIGNEDINTENTIONTOREVOKE_PACKETHASH",
      "outputs": [
        {
          "internalType": "bytes32",
          "name": "",
          "type": "bytes32"
        }
      ],
      "stateMutability": "pure",
      "type": "function"
    },
    {
      "inputs": [
        {
          "components": [
            {
              "components": [
                {
                  "components": [
                    {
                      "components": [
                        {
                          "internalType": "address",
                          "name": "to",
                          "type": "address"
                        },
                        {
                          "internalType": "uint256",
                          "name": "gasLimit",
                          "type": "uint256"
                        },
                        {
                          "internalType": "bytes",
                          "name": "data",
                          "type": "bytes"
                        }
                      ],
                      "internalType": "struct Transaction",
                      "name": "transaction",
                      "type": "tuple"
                    },
                    {
                      "components": [
                        {
                          "components": [
                            {
                              "internalType": "address",
                              "name": "delegate",
                              "type": "address"
                            },
                            {
                              "internalType": "bytes32",
                              "name": "authority",
                              "type": "bytes32"
                            },
                            {
                              "components": [
                                {
                                  "internalType": "address",
                                  "name": "enforcer",
                                  "type": "address"
                                },
                                {
                                  "internalType": "bytes",
                                  "name": "terms",
                                  "type": "bytes"
                                }
                              ],
                              "internalType": "struct Caveat[]",
                              "name": "caveats",
                              "type": "tuple[]"
                            }
                          ],
                          "internalType": "struct Delegation",
                          "name": "delegation",
                          "type": "tuple"
                        },
                        {
                          "internalType": "bytes",
                          "name": "signature",
                          "type": "bytes"
                        }
                      ],
                      "internalType": "struct SignedDelegation[]",
                      "name": "authority",
                      "type": "tuple[]"
                    }
                  ],
                  "internalType": "struct Invocation[]",
                  "name": "batch",
                  "type": "tuple[]"
                },
                {
                  "components": [
                    {
                      "internalType": "uint256",
                      "name": "nonce",
                      "type": "uint256"
                    },
                    {
                      "internalType": "uint256",
                      "name": "queue",
                      "type": "uint256"
                    }
                  ],
                  "internalType": "struct ReplayProtection",
                  "name": "replayProtection",
                  "type": "tuple"
                }
              ],
              "internalType": "struct Invocations",
              "name": "invocations",
              "type": "tuple"
            },
            {
              "internalType": "bytes",
              "name": "signature",
              "type": "bytes"
            }
          ],
          "internalType": "struct SignedInvocation",
          "name": "_input",
          "type": "tuple"
        }
      ],
      "name": "GET_SIGNEDINVOCATION_PACKETHASH",
      "outputs": [
        {
          "internalType": "bytes32",
          "name": "",
          "type": "bytes32"
        }
      ],
      "stateMutability": "pure",
      "type": "function"
    },
    {
      "inputs": [
        {
          "components": [
            {
              "internalType": "address",
              "name": "to",
              "type": "address"
            },
            {
              "internalType": "uint256",
              "name": "gasLimit",
              "type": "uint256"
            },
            {
              "internalType": "bytes",
              "name": "data",
              "type": "bytes"
            }
          ],
          "internalType": "struct Transaction",
          "name": "_input",
          "type": "tuple"
        }
      ],
      "name": "GET_TRANSACTION_PACKETHASH",
      "outputs": [
        {
          "internalType": "bytes32",
          "name": "",
          "type": "bytes32"
        }
      ],
      "stateMutability": "pure",
      "type": "function"
    },
    {
      "inputs": [
        {
          "internalType": "address",
          "name": "owner",
          "type": "address"
        },
        {
          "internalType": "address",
          "name": "spender",
          "type": "address"
        }
      ],
      "name": "allowance",
      "outputs": [
        {
          "internalType": "uint256",
          "name": "",
          "type": "uint256"
        }
      ],
      "stateMutability": "view",
      "type": "function"
    },
    {
      "inputs": [
        {
          "internalType": "address",
          "name": "spender",
          "type": "address"
        },
        {
          "internalType": "uint256",
          "name": "amount",
          "type": "uint256"
        }
      ],
      "name": "approve",
      "outputs": [
        {
          "internalType": "bool",
          "name": "",
          "type": "bool"
        }
      ],
      "stateMutability": "nonpayable",
      "type": "function"
    },
    {
      "inputs": [
        {
          "internalType": "address",
          "name": "account",
          "type": "address"
        }
      ],
      "name": "balanceOf",
      "outputs": [
        {
          "internalType": "uint256",
          "name": "",
          "type": "uint256"
        }
      ],
      "stateMutability": "view",
      "type": "function"
    },
    {
      "inputs": [
        {
          "components": [
            {
              "components": [
                {
                  "internalType": "address",
                  "name": "to",
                  "type": "address"
                },
                {
                  "internalType": "uint256",
                  "name": "gasLimit",
                  "type": "uint256"
                },
                {
                  "internalType": "bytes",
                  "name": "data",
                  "type": "bytes"
                }
              ],
              "internalType": "struct Transaction",
              "name": "transaction",
              "type": "tuple"
            },
            {
              "components": [
                {
                  "components": [
                    {
                      "internalType": "address",
                      "name": "delegate",
                      "type": "address"
                    },
                    {
                      "internalType": "bytes32",
                      "name": "authority",
                      "type": "bytes32"
                    },
                    {
                      "components": [
                        {
                          "internalType": "address",
                          "name": "enforcer",
                          "type": "address"
                        },
                        {
                          "internalType": "bytes",
                          "name": "terms",
                          "type": "bytes"
                        }
                      ],
                      "internalType": "struct Caveat[]",
                      "name": "caveats",
                      "type": "tuple[]"
                    }
                  ],
                  "internalType": "struct Delegation",
                  "name": "delegation",
                  "type": "tuple"
                },
                {
                  "internalType": "bytes",
                  "name": "signature",
                  "type": "bytes"
                }
              ],
              "internalType": "struct SignedDelegation[]",
              "name": "authority",
              "type": "tuple[]"
            }
          ],
          "internalType": "struct Invocation[]",
          "name": "batch",
          "type": "tuple[]"
        }
      ],
      "name": "contractInvoke",
      "outputs": [
        {
          "internalType": "bool",
          "name": "",
          "type": "bool"
        }
      ],
      "stateMutability": "nonpayable",
      "type": "function"
    },
    {
      "inputs": [],
      "name": "decimals",
      "outputs": [
        {
          "internalType": "uint8",
          "name": "",
          "type": "uint8"
        }
      ],
      "stateMutability": "view",
      "type": "function"
    },
    {
      "inputs": [
        {
          "internalType": "address",
          "name": "spender",
          "type": "address"
        },
        {
          "internalType": "uint256",
          "name": "subtractedValue",
          "type": "uint256"
        }
      ],
      "name": "decreaseAllowance",
      "outputs": [
        {
          "internalType": "bool",
          "name": "",
          "type": "bool"
        }
      ],
      "stateMutability": "nonpayable",
      "type": "function"
    },
    {
      "inputs": [],
      "name": "domainHash",
      "outputs": [
        {
          "internalType": "bytes32",
          "name": "",
          "type": "bytes32"
        }
      ],
      "stateMutability": "view",
      "type": "function"
    },
    {
      "inputs": [
        {
          "components": [
            {
              "internalType": "address",
              "name": "delegate",
              "type": "address"
            },
            {
              "internalType": "bytes32",
              "name": "authority",
              "type": "bytes32"
            },
            {
              "components": [
                {
                  "internalType": "address",
                  "name": "enforcer",
                  "type": "address"
                },
                {
                  "internalType": "bytes",
                  "name": "terms",
                  "type": "bytes"
                }
              ],
              "internalType": "struct Caveat[]",
              "name": "caveats",
              "type": "tuple[]"
            }
          ],
          "internalType": "struct Delegation",
          "name": "delegation",
          "type": "tuple"
        }
      ],
      "name": "getDelegationTypedDataHash",
      "outputs": [
        {
          "internalType": "bytes32",
          "name": "",
          "type": "bytes32"
        }
      ],
      "stateMutability": "view",
      "type": "function"
    },
    {
      "inputs": [
        {
          "internalType": "string",
          "name": "contractName",
          "type": "string"
        },
        {
          "internalType": "string",
          "name": "version",
          "type": "string"
        },
        {
          "internalType": "uint256",
          "name": "chainId",
          "type": "uint256"
        },
        {
          "internalType": "address",
          "name": "verifyingContract",
          "type": "address"
        }
      ],
      "name": "getEIP712DomainHash",
      "outputs": [
        {
          "internalType": "bytes32",
          "name": "",
          "type": "bytes32"
        }
      ],
      "stateMutability": "pure",
      "type": "function"
    },
    {
      "inputs": [
        {
          "components": [
            {
              "components": [
                {
                  "components": [
                    {
                      "internalType": "address",
                      "name": "to",
                      "type": "address"
                    },
                    {
                      "internalType": "uint256",
                      "name": "gasLimit",
                      "type": "uint256"
                    },
                    {
                      "internalType": "bytes",
                      "name": "data",
                      "type": "bytes"
                    }
                  ],
                  "internalType": "struct Transaction",
                  "name": "transaction",
                  "type": "tuple"
                },
                {
                  "components": [
                    {
                      "components": [
                        {
                          "internalType": "address",
                          "name": "delegate",
                          "type": "address"
                        },
                        {
                          "internalType": "bytes32",
                          "name": "authority",
                          "type": "bytes32"
                        },
                        {
                          "components": [
                            {
                              "internalType": "address",
                              "name": "enforcer",
                              "type": "address"
                            },
                            {
                              "internalType": "bytes",
                              "name": "terms",
                              "type": "bytes"
                            }
                          ],
                          "internalType": "struct Caveat[]",
                          "name": "caveats",
                          "type": "tuple[]"
                        }
                      ],
                      "internalType": "struct Delegation",
                      "name": "delegation",
                      "type": "tuple"
                    },
                    {
                      "internalType": "bytes",
                      "name": "signature",
                      "type": "bytes"
                    }
                  ],
                  "internalType": "struct SignedDelegation[]",
                  "name": "authority",
                  "type": "tuple[]"
                }
              ],
              "internalType": "struct Invocation[]",
              "name": "batch",
              "type": "tuple[]"
            },
            {
              "components": [
                {
                  "internalType": "uint256",
                  "name": "nonce",
                  "type": "uint256"
                },
                {
                  "internalType": "uint256",
                  "name": "queue",
                  "type": "uint256"
                }
              ],
              "internalType": "struct ReplayProtection",
              "name": "replayProtection",
              "type": "tuple"
            }
          ],
          "internalType": "struct Invocations",
          "name": "invocations",
          "type": "tuple"
        }
      ],
      "name": "getInvocationsTypedDataHash",
      "outputs": [
        {
          "internalType": "bytes32",
          "name": "",
          "type": "bytes32"
        }
      ],
      "stateMutability": "view",
      "type": "function"
    },
    {
      "inputs": [
        {
          "internalType": "address",
          "name": "spender",
          "type": "address"
        },
        {
          "internalType": "uint256",
          "name": "addedValue",
          "type": "uint256"
        }
      ],
      "name": "increaseAllowance",
      "outputs": [
        {
          "internalType": "bool",
          "name": "",
          "type": "bool"
        }
      ],
      "stateMutability": "nonpayable",
      "type": "function"
    },
    {
      "inputs": [
        {
          "components": [
            {
              "components": [
                {
                  "components": [
                    {
                      "components": [
                        {
                          "internalType": "address",
                          "name": "to",
                          "type": "address"
                        },
                        {
                          "internalType": "uint256",
                          "name": "gasLimit",
                          "type": "uint256"
                        },
                        {
                          "internalType": "bytes",
                          "name": "data",
                          "type": "bytes"
                        }
                      ],
                      "internalType": "struct Transaction",
                      "name": "transaction",
                      "type": "tuple"
                    },
                    {
                      "components": [
                        {
                          "components": [
                            {
                              "internalType": "address",
                              "name": "delegate",
                              "type": "address"
                            },
                            {
                              "internalType": "bytes32",
                              "name": "authority",
                              "type": "bytes32"
                            },
                            {
                              "components": [
                                {
                                  "internalType": "address",
                                  "name": "enforcer",
                                  "type": "address"
                                },
                                {
                                  "internalType": "bytes",
                                  "name": "terms",
                                  "type": "bytes"
                                }
                              ],
                              "internalType": "struct Caveat[]",
                              "name": "caveats",
                              "type": "tuple[]"
                            }
                          ],
                          "internalType": "struct Delegation",
                          "name": "delegation",
                          "type": "tuple"
                        },
                        {
                          "internalType": "bytes",
                          "name": "signature",
                          "type": "bytes"
                        }
                      ],
                      "internalType": "struct SignedDelegation[]",
                      "name": "authority",
                      "type": "tuple[]"
                    }
                  ],
                  "internalType": "struct Invocation[]",
                  "name": "batch",
                  "type": "tuple[]"
                },
                {
                  "components": [
                    {
                      "internalType": "uint256",
                      "name": "nonce",
                      "type": "uint256"
                    },
                    {
                      "internalType": "uint256",
                      "name": "queue",
                      "type": "uint256"
                    }
                  ],
                  "internalType": "struct ReplayProtection",
                  "name": "replayProtection",
                  "type": "tuple"
                }
              ],
              "internalType": "struct Invocations",
              "name": "invocations",
              "type": "tuple"
            },
            {
              "internalType": "bytes",
              "name": "signature",
              "type": "bytes"
            }
          ],
          "internalType": "struct SignedInvocation[]",
          "name": "signedInvocations",
          "type": "tuple[]"
        }
      ],
      "name": "invoke",
      "outputs": [
        {
          "internalType": "bool",
          "name": "success",
          "type": "bool"
        }
      ],
      "stateMutability": "nonpayable",
      "type": "function"
    },
    {
      "inputs": [
        {
          "internalType": "address",
          "name": "",
          "type": "address"
        },
        {
          "internalType": "uint256",
          "name": "",
          "type": "uint256"
        }
      ],
      "name": "multiNonce",
      "outputs": [
        {
          "internalType": "uint256",
          "name": "",
          "type": "uint256"
        }
      ],
      "stateMutability": "view",
      "type": "function"
    },
    {
      "inputs": [],
      "name": "name",
      "outputs": [
        {
          "internalType": "string",
          "name": "",
          "type": "string"
        }
      ],
      "stateMutability": "view",
      "type": "function"
    },
    {
      "inputs": [],
      "name": "owner",
      "outputs": [
        {
          "internalType": "address",
          "name": "",
          "type": "address"
        }
      ],
      "stateMutability": "view",
      "type": "function"
    },
    {
      "inputs": [],
      "name": "renounceOwnership",
      "outputs": [],
      "stateMutability": "nonpayable",
      "type": "function"
    },
    {
      "inputs": [],
      "name": "symbol",
      "outputs": [
        {
          "internalType": "string",
          "name": "",
          "type": "string"
        }
      ],
      "stateMutability": "view",
      "type": "function"
    },
    {
      "inputs": [],
      "name": "totalSupply",
      "outputs": [
        {
          "internalType": "uint256",
          "name": "",
          "type": "uint256"
        }
      ],
      "stateMutability": "view",
      "type": "function"
    },
    {
      "inputs": [
        {
          "internalType": "address",
          "name": "to",
          "type": "address"
        },
        {
          "internalType": "uint256",
          "name": "amount",
          "type": "uint256"
        }
      ],
      "name": "transfer",
      "outputs": [
        {
          "internalType": "bool",
          "name": "",
          "type": "bool"
        }
      ],
      "stateMutability": "nonpayable",
      "type": "function"
    },
    {
      "inputs": [
        {
          "internalType": "address",
          "name": "from",
          "type": "address"
        },
        {
          "internalType": "address",
          "name": "to",
          "type": "address"
        },
        {
          "internalType": "uint256",
          "name": "amount",
          "type": "uint256"
        }
      ],
      "name": "transferFrom",
      "outputs": [
        {
          "internalType": "bool",
          "name": "",
          "type": "bool"
        }
      ],
      "stateMutability": "nonpayable",
      "type": "function"
    },
    {
      "inputs": [
        {
          "internalType": "address",
          "name": "newOwner",
          "type": "address"
        }
      ],
      "name": "transferOwnership",
      "outputs": [],
      "stateMutability": "nonpayable",
      "type": "function"
    },
    {
      "inputs": [
        {
          "components": [
            {
              "components": [
                {
                  "internalType": "address",
                  "name": "delegate",
                  "type": "address"
                },
                {
                  "internalType": "bytes32",
                  "name": "authority",
                  "type": "bytes32"
                },
                {
                  "components": [
                    {
                      "internalType": "address",
                      "name": "enforcer",
                      "type": "address"
                    },
                    {
                      "internalType": "bytes",
                      "name": "terms",
                      "type": "bytes"
                    }
                  ],
                  "internalType": "struct Caveat[]",
                  "name": "caveats",
                  "type": "tuple[]"
                }
              ],
              "internalType": "struct Delegation",
              "name": "delegation",
              "type": "tuple"
            },
            {
              "internalType": "bytes",
              "name": "signature",
              "type": "bytes"
            }
          ],
          "internalType": "struct SignedDelegation",
          "name": "signedDelegation",
          "type": "tuple"
        }
      ],
      "name": "verifyDelegationSignature",
      "outputs": [
        {
          "internalType": "address",
          "name": "",
          "type": "address"
        }
      ],
      "stateMutability": "view",
      "type": "function"
    },
    {
      "inputs": [
        {
          "components": [
            {
              "components": [
                {
                  "components": [
                    {
                      "components": [
                        {
                          "internalType": "address",
                          "name": "to",
                          "type": "address"
                        },
                        {
                          "internalType": "uint256",
                          "name": "gasLimit",
                          "type": "uint256"
                        },
                        {
                          "internalType": "bytes",
                          "name": "data",
                          "type": "bytes"
                        }
                      ],
                      "internalType": "struct Transaction",
                      "name": "transaction",
                      "type": "tuple"
                    },
                    {
                      "components": [
                        {
                          "components": [
                            {
                              "internalType": "address",
                              "name": "delegate",
                              "type": "address"
                            },
                            {
                              "internalType": "bytes32",
                              "name": "authority",
                              "type": "bytes32"
                            },
                            {
                              "components": [
                                {
                                  "internalType": "address",
                                  "name": "enforcer",
                                  "type": "address"
                                },
                                {
                                  "internalType": "bytes",
                                  "name": "terms",
                                  "type": "bytes"
                                }
                              ],
                              "internalType": "struct Caveat[]",
                              "name": "caveats",
                              "type": "tuple[]"
                            }
                          ],
                          "internalType": "struct Delegation",
                          "name": "delegation",
                          "type": "tuple"
                        },
                        {
                          "internalType": "bytes",
                          "name": "signature",
                          "type": "bytes"
                        }
                      ],
                      "internalType": "struct SignedDelegation[]",
                      "name": "authority",
                      "type": "tuple[]"
                    }
                  ],
                  "internalType": "struct Invocation[]",
                  "name": "batch",
                  "type": "tuple[]"
                },
                {
                  "components": [
                    {
                      "internalType": "uint256",
                      "name": "nonce",
                      "type": "uint256"
                    },
                    {
                      "internalType": "uint256",
                      "name": "queue",
                      "type": "uint256"
                    }
                  ],
                  "internalType": "struct ReplayProtection",
                  "name": "replayProtection",
                  "type": "tuple"
                }
              ],
              "internalType": "struct Invocations",
              "name": "invocations",
              "type": "tuple"
            },
            {
              "internalType": "bytes",
              "name": "signature",
              "type": "bytes"
            }
          ],
          "internalType": "struct SignedInvocation",
          "name": "signedInvocation",
          "type": "tuple"
        }
      ],
      "name": "verifyInvocationSignature",
      "outputs": [
        {
          "internalType": "address",
          "name": "",
          "type": "address"
        }
      ],
      "stateMutability": "view",
      "type": "function"
    }
  ],
  "bytecode": "0x60a06040523480156200001157600080fd5b5060405162002c5d38038062002c5d83398101604081905262000034916200040f565b82604051806040016040528060018152602001603160f81b81525084848160039080519060200190620000699291906200029c565b5080516200007f9060049060208401906200029c565b5050506200009c620000966200012660201b60201c565b62000184565b8151602080840191909120825182840120604080517f8b73c3c69bb8fe3d512ecc4cf759cc79239f7b179b0ffacaa9a75d522b39400f818601528082019390935260608301919091524660808301523060a0808401919091528151808403909101815260c090920190528051910120608052506200011d90503382620001d6565b505050620004e5565b60003033036200017e57600080368080601f0160208091040260200160405190810160405280939291908181526020018383808284376000920191909152505050503601516001600160a01b03169150620001819050565b50335b90565b600580546001600160a01b038381166001600160a01b0319831681179093556040519116919082907f8be0079c531659141344cd1fd0a4f28419497f9722a3daafe3b4186f6b6457e090600090a35050565b6001600160a01b038216620002315760405162461bcd60e51b815260206004820152601f60248201527f45524332303a206d696e7420746f20746865207a65726f206164647265737300604482015260640160405180910390fd5b806002600082825462000245919062000482565b90915550506001600160a01b038216600081815260208181526040808320805486019055518481527fddf252ad1be2c89b69c2b068fc378daa952ba7f163c4a11628f55a4df523b3ef910160405180910390a35050565b828054620002aa90620004a9565b90600052602060002090601f016020900481019282620002ce576000855562000319565b82601f10620002e957805160ff191683800117855562000319565b8280016001018555821562000319579182015b8281111562000319578251825591602001919060010190620002fc565b50620003279291506200032b565b5090565b5b808211156200032757600081556001016200032c565b634e487b7160e01b600052604160045260246000fd5b600082601f8301126200036a57600080fd5b81516001600160401b038082111562000387576200038762000342565b604051601f8301601f19908116603f01168101908282118183101715620003b257620003b262000342565b81604052838152602092508683858801011115620003cf57600080fd5b600091505b83821015620003f35785820183015181830184015290820190620003d4565b83821115620004055760008385830101525b9695505050505050565b6000806000606084860312156200042557600080fd5b83516001600160401b03808211156200043d57600080fd5b6200044b8783880162000358565b945060208601519150808211156200046257600080fd5b50620004718682870162000358565b925050604084015190509250925092565b60008219821115620004a457634e487b7160e01b600052601160045260246000fd5b500190565b600181811c90821680620004be57607f821691505b602082108103620004df57634e487b7160e01b600052602260045260246000fd5b50919050565b60805161274e6200050f600039600081816105870152818161096b0152610c01015261274e6000f3fe608060405234801561001057600080fd5b50600436106102275760003560e01c80637234eefe11610130578063a2e01f75116100b8578063d327c1eb1161007c578063d327c1eb146104d2578063d6d75cbf1461055c578063dd62ed3e1461056f578063dfe86ac514610582578063f2fde38b146105a957600080fd5b8063a2e01f7514610473578063a457c2d714610486578063a9059cbb14610499578063bb5af5bd146104ac578063caced6c5146104bf57600080fd5b80638a04499e116100ff5780638a04499e146104095780638da5cb5b1461043457806395d89b411461044557806397182ed61461044d57806398bc186a1461046057600080fd5b80637234eefe146103bd578063732c36e8146103d0578063736f7ce7146103e35780637b577b58146103f657600080fd5b806339509351116101b357806360b6d7681161018257806360b6d768146103515780636c2b1253146103645780636f9658031461037757806370a082311461038a578063715018a6146103b357600080fd5b806339509351146103055780633a481821146103185780635c6d9f0c1461032b5780635cf1b24a1461033e57600080fd5b806318160ddd116101fa57806318160ddd146102b557806323b872dd146102bd5780632f52a2fd146102d05780632fad7efc146102e3578063313ce567146102f657600080fd5b80630162f7221461022c57806306fdde031461026a57806308aaf6b01461027f578063095ea7b314610292575b600080fd5b61025761023a366004611940565b600660209081526000928352604080842090915290825290205481565b6040519081526020015b60405180910390f35b6102726105bc565b60405161026191906119c2565b61025761028d366004611b4e565b61064e565b6102a56102a0366004611940565b6106ce565b6040519015158152602001610261565b600254610257565b6102a56102cb366004611b82565b6106f2565b6102576102de366004611cd2565b610720565b6102a56102f1366004611d51565b61078b565b60405160128152602001610261565b6102a5610313366004611940565b610852565b610257610326366004611faa565b61087e565b6102a5610339366004611d51565b6108f5565b61025761034c366004611fde565b610909565b61025761035f36600461209b565b610966565b6102576103723660046120cf565b6109b6565b610257610385366004612103565b610a13565b61025761039836600461211f565b6001600160a01b031660009081526020819052604090205490565b6103bb610a64565b005b6102576103cb36600461209b565b610a78565b6102576103de36600461217b565b610ab6565b6102576103f13660046121f9565b610af3565b61025761040436600461222d565b610b5b565b61041c6104173660046120cf565b610bc3565b6040516001600160a01b039091168152602001610261565b6005546001600160a01b031661041c565b610272610bed565b61025761045b366004611cd2565b610bfc565b61025761046e366004612261565b610c29565b61025761048136600461230c565b610c75565b6102a5610494366004611940565b610ce1565b6102a56104a7366004611940565b610d6c565b6102576104ba36600461237f565b610d84565b61041c6104cd36600461237f565b610db5565b6102576104e03660046123b3565b8351602094850120835193850193909320604080517f8b73c3c69bb8fe3d512ecc4cf759cc79239f7b179b0ffacaa9a75d522b39400f8188015280820195909552606085019190915260808401929092526001600160a01b031660a0808401919091528151808403909101815260c09092019052805191012090565b61025761056a366004612430565b610ddf565b61025761057d36600461244c565b610e20565b6102577f000000000000000000000000000000000000000000000000000000000000000081565b6103bb6105b736600461211f565b610e4b565b6060600380546105cb9061247f565b80601f01602080910402602001604051908101604052809291908181526020018280546105f79061247f565b80156106445780601f1061061957610100808354040283529160200191610644565b820191906000526020600020905b81548152906001019060200180831161062757829003601f168201915b5050505050905090565b6000807f80ad7e1b04ee6d994a125f4714ca0720908bd80ed16063ec8aee4b88e9253e2d83600001518460200151805190602001206040516020016106af939291909283526001600160a01b03919091166020830152604082015260600190565b60408051601f1981840301815291905280516020909101209392505050565b6000806106d9610ec4565b90506106e6818585610f20565b60019150505b92915050565b6000806106fd610ec4565b905061070a858285611044565b6107158585856110be565b506001949350505050565b6000807f409f5114779a253e700d775d7845e6efc1e83685ac59868d2df3d4de51c7d6218360000151846020015161075b8660400151610b5b565b6040805160208101959095526001600160a01b03909316928401929092526060830152608082015260a0016106af565b6000805b8281101561084b57368484838181106107aa576107aa6124b9565b90506020028101906107bc91906124cf565b905060006107cc6104cd836124ef565b9050610818818787868181106107e4576107e46124b9565b90506020028101906107f691906124cf565b61080090806124fb565b6020018036038101906108139190612103565b611262565b61083561082583806124fb565b61082f9080612511565b8361132d565b505050808061084390612570565b91505061078f565b5092915050565b60008061085d610ec4565b90506106e681858561086f8589610e20565b6108799190612589565b610f20565b6000606060005b83518110156108e657816108b18583815181106108a4576108a46124b9565b6020026020010151610909565b6040516020016108c29291906125a1565b604051602081830303815290604052915080806108de90612570565b915050610885565b50805160209091012092915050565b600061090283833361132d565b9392505050565b6000807fd97dd99b404d177890f06a8f0fc8e5ed0333fb2ebb6684360709066e8984f59461093a8460000151610c75565b6109478560200151610af3565b60408051602081019490945283019190915260608201526080016106af565b6000807f000000000000000000000000000000000000000000000000000000000000000061099384610a78565b60405161190160f01b6020820152602281019290925260428201526062016106af565b6000807f3c36a06e1d288b0f94f565588317a46ad11bc3c96992109f9a2365a2737259a76109e78460000151610720565b6020808601518051908201206040516106af949392019283526020830191909152604082015260600190565b6000807fe8d3d963b33868fb116316bc3fd55e8f49123f30e4418f71e140d54b7cd3b2b9836000015184602001516040516020016106af939291909283526020830191909152604082015260600190565b610a6c611743565b610a7660006117bc565b565b6000807f08c69a206c06f5334b35ceb1186181a713b21aff02cf66285f375084fbef2eb8610aa9846000015161087e565b6109478560200151610a13565b6000807f1b0091a1d050ac3fa97e15af326cf512d740529b43d5750169acacda23de27888360000151805190602001206109478560200151610ddf565b6000606060005b83518110156108e65781610b26858381518110610b1957610b196124b9565b60200260200101516109b6565b604051602001610b379291906125a1565b60405160208183030381529060405291508080610b5390612570565b915050610afa565b6000606060005b83518110156108e65781610b8e858381518110610b8157610b816124b9565b602002602001015161064e565b604051602001610b9f9291906125a1565b60405160208183030381529060405291508080610bbb90612570565b915050610b62565b805160009081610bd282610bfc565b90506000610be482866020015161180e565b95945050505050565b6060600480546105cb9061247f565b6000807f000000000000000000000000000000000000000000000000000000000000000061099384610720565b6000807f8b73c3c69bb8fe3d512ecc4cf759cc79239f7b179b0ffacaa9a75d522b39400f83600001518460200151856040015186606001516040516020016106af9594939291906125c3565b6000807fb16dfdb3b8fa033fe30ac976cd4a50ad256b6811c80d90fcd0b323eec190047d836000015184602001518560400151805190602001206040516020016106af94939291909384526001600160a01b039290921660208401526040830152606082015260800190565b600080610cec610ec4565b90506000610cfa8286610e20565b905083811015610d5f5760405162461bcd60e51b815260206004820152602560248201527f45524332303a2064656372656173656420616c6c6f77616e63652062656c6f77604482015264207a65726f60d81b60648201526084015b60405180910390fd5b6107158286868403610f20565b600080610d77610ec4565b90506106e68185856110be565b6000807fc32b6dfe0f988d1f2b13248cddd88e320ff0ae86e3ccfe38bab77a80f4477d446109e78460000151610a78565b600080610dc58360000151610966565b90506000610dd782856020015161180e565b949350505050565b805160405160009182916106af917f7148a5140265154d6c5200f68c3b86caca80512f179c3903dffd45aeaefc8ea891602001918252602082015260400190565b6001600160a01b03918216600090815260016020908152604080832093909416825291909152205490565b610e53611743565b6001600160a01b038116610eb85760405162461bcd60e51b815260206004820152602660248201527f4f776e61626c653a206e6577206f776e657220697320746865207a65726f206160448201526564647265737360d01b6064820152608401610d56565b610ec1816117bc565b50565b6000303303610f1a57600080368080601f0160208091040260200160405190810160405280939291908181526020018383808284376000920191909152505050503601516001600160a01b03169150610f1d9050565b50335b90565b6001600160a01b038316610f825760405162461bcd60e51b8152602060048201526024808201527f45524332303a20617070726f76652066726f6d20746865207a65726f206164646044820152637265737360e01b6064820152608401610d56565b6001600160a01b038216610fe35760405162461bcd60e51b815260206004820152602260248201527f45524332303a20617070726f766520746f20746865207a65726f206164647265604482015261737360f01b6064820152608401610d56565b6001600160a01b0383811660008181526001602090815260408083209487168084529482529182902085905590518481527f8c5be1e5ebec7d5bd14f71427d1e84f3dd0314c0f7b2291e5b200ac8c7c3b925910160405180910390a3505050565b60006110508484610e20565b905060001981146110b857818110156110ab5760405162461bcd60e51b815260206004820152601d60248201527f45524332303a20696e73756666696369656e7420616c6c6f77616e63650000006044820152606401610d56565b6110b88484848403610f20565b50505050565b6001600160a01b0383166111225760405162461bcd60e51b815260206004820152602560248201527f45524332303a207472616e736665722066726f6d20746865207a65726f206164604482015264647265737360d81b6064820152608401610d56565b6001600160a01b0382166111845760405162461bcd60e51b815260206004820152602360248201527f45524332303a207472616e7366657220746f20746865207a65726f206164647260448201526265737360e81b6064820152608401610d56565b6001600160a01b038316600090815260208190526040902054818110156111fc5760405162461bcd60e51b815260206004820152602660248201527f45524332303a207472616e7366657220616d6f756e7420657863656564732062604482015265616c616e636560d01b6064820152608401610d56565b6001600160a01b03848116600081815260208181526040808320878703905593871680835291849020805487019055925185815290927fddf252ad1be2c89b69c2b068fc378daa952ba7f163c4a11628f55a4df523b3ef910160405180910390a36110b8565b60208082015182516001600160a01b0385166000908152600684526040808220848352909452929092205490919061129b906001612589565b81146113035760405162461bcd60e51b815260206004820152603160248201527f4f6e652d61742d612d74696d65206f7264657220656e666f726365642e204e6f6044820152701b98d94c881a5cc81d1bdbc81cdb585b1b607a1b6064820152608401610d56565b6001600160a01b039093166000908152600660209081526040808320938352929052209190915550565b6000805b8381101561173b57600085858381811061134d5761134d6124b9565b905060200281019061135f91906124cf565b61136890612611565b90506000808260200151516000036113805750849050805b6000805b846020015151811015611620576000856020015182815181106113a9576113a96124b9565b6020026020010151905060006113be82610bc3565b9050826000036113cf578095508594505b846001600160a01b0316816001600160a01b0316146114495760405162461bcd60e51b815260206004820152603060248201527f44656c65676174696f6e207369676e657220646f6573206e6f74206d6174636860448201526f103932b8bab4b932b21039b4b3b732b960811b6064820152608401610d56565b8151602081015185146114c45760405162461bcd60e51b815260206004820152603760248201527f44656c65676174696f6e20617574686f7269747920646f6573206e6f74206d6160448201527f7463682070726576696f75732064656c65676174696f6e0000000000000000006064820152608401610d56565b60006114cf846109b6565b905060005b8260400151518161ffff16101561160357600083604001518261ffff1681518110611501576115016124b9565b60200260200101516000015190506000816001600160a01b0316635068de4c86604001518561ffff168151811061153a5761153a6124b9565b6020026020010151602001518e60000151876040518463ffffffff1660e01b815260040161156a9392919061261d565b6020604051808303816000875af1158015611589573d6000803e3d6000fd5b505050506040513d601f19601f820116820180604052508101906115ad9190612679565b9050806115ee5760405162461bcd60e51b815260206004820152600f60248201526e10d85d99585d081c995a9958dd1959608a1b6044820152606401610d56565b505080806115fb9061269b565b9150506114d4565b50905195509350829150611618905081612570565b915050611384565b50835180516001600160a01b0316301461167c5760405162461bcd60e51b815260206004820181905260248201527f496e766f636174696f6e2074617267657420646f6573206e6f74206d617463686044820152606401610d56565b6040516001600160a01b0385811682528916907f185d11175440fcb6458fbc1889b02953452539ed80ad1da781a5449500f6d9609060200160405180910390a26116d4816000015182604001518360200151876118e5565b9650866117235760405162461bcd60e51b815260206004820152601a60248201527f44656c656761746f7220657865637574696f6e206661696c65640000000000006044820152606401610d56565b5050505050808061173390612570565b915050611331565b509392505050565b61174b610ec4565b6001600160a01b03166117666005546001600160a01b031690565b6001600160a01b031614610a765760405162461bcd60e51b815260206004820181905260248201527f4f776e61626c653a2063616c6c6572206973206e6f7420746865206f776e65726044820152606401610d56565b600580546001600160a01b038381166001600160a01b0319831681179093556040519116919082907f8be0079c531659141344cd1fd0a4f28419497f9722a3daafe3b4186f6b6457e090600090a35050565b600080600080845160411461182957600093505050506106ec565b50505060208201516040830151606084015160001a601b81101561185557611852601b826126bc565b90505b8060ff16601b1415801561186d57508060ff16601c14155b1561187e57600093505050506106ec565b60408051600081526020810180835288905260ff831691810191909152606081018490526080810183905260019060a0016020604051602081039080840390855afa1580156118d1573d6000803e3d6000fd5b5050506020604051035193505050506106ec565b60008084836040516020016118fb9291906126e1565b604051602081830303815290604052905060008082516020840160008a89f19695505050505050565b80356001600160a01b038116811461193b57600080fd5b919050565b6000806040838503121561195357600080fd5b61195c83611924565b946020939093013593505050565b60005b8381101561198557818101518382015260200161196d565b838111156110b85750506000910152565b600081518084526119ae81602086016020860161196a565b601f01601f19169290920160200192915050565b6020815260006109026020830184611996565b634e487b7160e01b600052604160045260246000fd5b604080519081016001600160401b0381118282101715611a0d57611a0d6119d5565b60405290565b604051606081016001600160401b0381118282101715611a0d57611a0d6119d5565b604051608081016001600160401b0381118282101715611a0d57611a0d6119d5565b604051601f8201601f191681016001600160401b0381118282101715611a7f57611a7f6119d5565b604052919050565b600082601f830112611a9857600080fd5b81356001600160401b03811115611ab157611ab16119d5565b611ac4601f8201601f1916602001611a57565b818152846020838601011115611ad957600080fd5b816020850160208301376000918101602001919091529392505050565b600060408284031215611b0857600080fd5b611b106119eb565b9050611b1b82611924565b815260208201356001600160401b03811115611b3657600080fd5b611b4284828501611a87565b60208301525092915050565b600060208284031215611b6057600080fd5b81356001600160401b03811115611b7657600080fd5b610dd784828501611af6565b600080600060608486031215611b9757600080fd5b611ba084611924565b9250611bae60208501611924565b9150604084013590509250925092565b60006001600160401b03821115611bd757611bd76119d5565b5060051b60200190565b600082601f830112611bf257600080fd5b81356020611c07611c0283611bbe565b611a57565b82815260059290921b84018101918181019086841115611c2657600080fd5b8286015b84811015611c655780356001600160401b03811115611c495760008081fd5b611c578986838b0101611af6565b845250918301918301611c2a565b509695505050505050565b600060608284031215611c8257600080fd5b611c8a611a13565b9050611c9582611924565b81526020820135602082015260408201356001600160401b03811115611cba57600080fd5b611cc684828501611be1565b60408301525092915050565b600060208284031215611ce457600080fd5b81356001600160401b03811115611cfa57600080fd5b610dd784828501611c70565b60008083601f840112611d1857600080fd5b5081356001600160401b03811115611d2f57600080fd5b6020830191508360208260051b8501011115611d4a57600080fd5b9250929050565b60008060208385031215611d6457600080fd5b82356001600160401b03811115611d7a57600080fd5b611d8685828601611d06565b90969095509350505050565b600060608284031215611da457600080fd5b611dac611a13565b9050611db782611924565b81526020820135602082015260408201356001600160401b03811115611ddc57600080fd5b611cc684828501611a87565b600060408284031215611dfa57600080fd5b611e026119eb565b905081356001600160401b0380821115611e1b57600080fd5b611e2785838601611c70565b83526020840135915080821115611e3d57600080fd5b50611b4284828501611a87565b600082601f830112611e5b57600080fd5b81356020611e6b611c0283611bbe565b82815260059290921b84018101918181019086841115611e8a57600080fd5b8286015b84811015611c655780356001600160401b03811115611ead5760008081fd5b611ebb8986838b0101611de8565b845250918301918301611e8e565b600060408284031215611edb57600080fd5b611ee36119eb565b905081356001600160401b0380821115611efc57600080fd5b611f0885838601611d92565b83526020840135915080821115611f1e57600080fd5b50611b4284828501611e4a565b600082601f830112611f3c57600080fd5b81356020611f4c611c0283611bbe565b82815260059290921b84018101918181019086841115611f6b57600080fd5b8286015b84811015611c655780356001600160401b03811115611f8e5760008081fd5b611f9c8986838b0101611ec9565b845250918301918301611f6f565b600060208284031215611fbc57600080fd5b81356001600160401b03811115611fd257600080fd5b610dd784828501611f2b565b600060208284031215611ff057600080fd5b81356001600160401b0381111561200657600080fd5b610dd784828501611ec9565b60006040828403121561202457600080fd5b61202c6119eb565b9050813581526020820135602082015292915050565b60006060828403121561205457600080fd5b61205c6119eb565b905081356001600160401b0381111561207457600080fd5b61208084828501611f2b565b8252506120908360208401612012565b602082015292915050565b6000602082840312156120ad57600080fd5b81356001600160401b038111156120c357600080fd5b610dd784828501612042565b6000602082840312156120e157600080fd5b81356001600160401b038111156120f757600080fd5b610dd784828501611de8565b60006040828403121561211557600080fd5b6109028383612012565b60006020828403121561213157600080fd5b61090282611924565b60006020828403121561214c57600080fd5b604051602081018181106001600160401b038211171561216e5761216e6119d5565b6040529135825250919050565b60006020828403121561218d57600080fd5b81356001600160401b03808211156121a457600080fd5b90830190604082860312156121b857600080fd5b6121c06119eb565b8235828111156121cf57600080fd5b6121db87828601611a87565b8252506121eb866020850161213a565b602082015295945050505050565b60006020828403121561220b57600080fd5b81356001600160401b0381111561222157600080fd5b610dd784828501611e4a565b60006020828403121561223f57600080fd5b81356001600160401b0381111561225557600080fd5b610dd784828501611be1565b60006020828403121561227357600080fd5b81356001600160401b038082111561228a57600080fd5b908301906080828603121561229e57600080fd5b6122a6611a35565b8235828111156122b557600080fd5b6122c187828601611a87565b8252506020830135828111156122d657600080fd5b6122e287828601611a87565b602083015250604083013560408201526122fe60608401611924565b606082015295945050505050565b60006020828403121561231e57600080fd5b81356001600160401b0381111561233457600080fd5b610dd784828501611d92565b60006040828403121561235257600080fd5b61235a6119eb565b905081356001600160401b038082111561237357600080fd5b611e2785838601612042565b60006020828403121561239157600080fd5b81356001600160401b038111156123a757600080fd5b610dd784828501612340565b600080600080608085870312156123c957600080fd5b84356001600160401b03808211156123e057600080fd5b6123ec88838901611a87565b9550602087013591508082111561240257600080fd5b5061240f87828801611a87565b9350506040850135915061242560608601611924565b905092959194509250565b60006020828403121561244257600080fd5b610902838361213a565b6000806040838503121561245f57600080fd5b61246883611924565b915061247660208401611924565b90509250929050565b600181811c9082168061249357607f821691505b6020821081036124b357634e487b7160e01b600052602260045260246000fd5b50919050565b634e487b7160e01b600052603260045260246000fd5b60008235603e198336030181126124e557600080fd5b9190910192915050565b60006106ec3683612340565b60008235605e198336030181126124e557600080fd5b6000808335601e1984360301811261252857600080fd5b8301803591506001600160401b0382111561254257600080fd5b6020019150600581901b3603821315611d4a57600080fd5b634e487b7160e01b600052601160045260246000fd5b6000600182016125825761258261255a565b5060010190565b6000821982111561259c5761259c61255a565b500190565b600083516125b381846020880161196a565b9190910191825250602001919050565b85815260a0602082015260006125dc60a0830187611996565b82810360408401526125ee8187611996565b606084019590955250506001600160a01b03919091166080909101529392505050565b60006106ec3683611ec9565b6060815260006126306060830186611996565b828103602084015260018060a01b038551168152602085015160208201526040850151606060408301526126676060830182611996565b92505050826040830152949350505050565b60006020828403121561268b57600080fd5b8151801515811461090257600080fd5b600061ffff8083168181036126b2576126b261255a565b6001019392505050565b600060ff821660ff84168060ff038211156126d9576126d961255a565b019392505050565b600083516126f381846020880161196a565b60609390931b6bffffffffffffffffffffffff1916919092019081526014019291505056fea2646970667358221220b6718479e4911fe901f9c7f85cd9b7007bef4c4fc366900bf6c35dbff73b706064736f6c634300080d0033",
  "linkReferences": {},
  "deployedLinkReferences": {}
}